{
  "_format": "hh-sol-artifact-1",
  "contractName": "PalindromeOrderBook",
  "sourceName": "src/contracts/PalindromeOrderBook.sol",
  "abi": [
    {
      "inputs": [],
      "stateMutability": "nonpayable",
      "type": "constructor"
    },
    {
      "anonymous": false,
      "inputs": [
        {
          "indexed": true,
          "internalType": "address",
          "name": "paymentSystemUID",
          "type": "address"
        },
        {
          "indexed": true,
          "internalType": "address",
          "name": "orderBookUID",
          "type": "address"
        },
        {
          "indexed": false,
          "internalType": "address",
          "name": "mediator",
          "type": "address"
        }
      ],
      "name": "OrderBookInitialised",
      "type": "event"
    },
    {
      "anonymous": false,
      "inputs": [
        {
          "indexed": false,
          "internalType": "address",
          "name": "orderBookUID",
          "type": "address"
        },
        {
          "indexed": false,
          "internalType": "address",
          "name": "_seller",
          "type": "address"
        },
        {
          "indexed": false,
          "internalType": "address",
          "name": "_customer",
          "type": "address"
        },
        {
          "indexed": true,
          "internalType": "uint256",
          "name": "_orderID",
          "type": "uint256"
        },
        {
          "indexed": true,
          "internalType": "enum IPalindromeOrderBook.Status",
          "name": "_status",
          "type": "uint8"
        },
        {
          "indexed": false,
          "internalType": "address",
          "name": "_token",
          "type": "address"
        },
        {
          "indexed": false,
          "internalType": "uint256",
          "name": "_amount",
          "type": "uint256"
        },
        {
          "indexed": false,
          "internalType": "bytes32",
          "name": "_title0",
          "type": "bytes32"
        },
        {
          "indexed": false,
          "internalType": "bytes32",
          "name": "_title1",
          "type": "bytes32"
        },
        {
          "indexed": false,
          "internalType": "uint256",
          "name": "openingTime",
          "type": "uint256"
        },
        {
          "indexed": false,
          "internalType": "uint256",
          "name": "closeTime",
          "type": "uint256"
        },
        {
          "indexed": false,
          "internalType": "uint256",
          "name": "maturityTime",
          "type": "uint256"
        }
      ],
      "name": "OrderCreated",
      "type": "event"
    },
    {
      "anonymous": false,
      "inputs": [
        {
          "indexed": false,
          "internalType": "address",
          "name": "orderBookUID",
          "type": "address"
        },
        {
          "indexed": false,
          "internalType": "address",
          "name": "_seller",
          "type": "address"
        },
        {
          "indexed": false,
          "internalType": "address",
          "name": "_customer",
          "type": "address"
        },
        {
          "indexed": true,
          "internalType": "uint256",
          "name": "_orderID",
          "type": "uint256"
        },
        {
          "indexed": true,
          "internalType": "enum IPalindromeOrderBook.Status",
          "name": "_status",
          "type": "uint8"
        },
        {
          "indexed": false,
          "internalType": "address",
          "name": "_token",
          "type": "address"
        },
        {
          "indexed": false,
          "internalType": "uint256",
          "name": "_amount",
          "type": "uint256"
        },
        {
          "indexed": false,
          "internalType": "bytes32",
          "name": "_title0",
          "type": "bytes32"
        },
        {
          "indexed": false,
          "internalType": "bytes32",
          "name": "_title1",
          "type": "bytes32"
        },
        {
          "indexed": false,
          "internalType": "uint256",
          "name": "openingTime",
          "type": "uint256"
        },
        {
          "indexed": false,
          "internalType": "uint256",
          "name": "closingTime",
          "type": "uint256"
        },
        {
          "indexed": false,
          "internalType": "uint256",
          "name": "maturityTime",
          "type": "uint256"
        }
      ],
      "name": "OrderUpdated",
      "type": "event"
    },
    {
      "inputs": [
        {
          "internalType": "address",
          "name": "_from",
          "type": "address"
        },
        {
          "internalType": "uint256",
          "name": "_orderID",
          "type": "uint256"
        }
      ],
      "name": "cancelOrder",
      "outputs": [
        {
          "internalType": "bool",
          "name": "",
          "type": "bool"
        }
      ],
      "stateMutability": "nonpayable",
      "type": "function"
    },
    {
      "inputs": [
        {
          "internalType": "address",
          "name": "_from",
          "type": "address"
        },
        {
          "internalType": "uint256",
          "name": "_orderID",
          "type": "uint256"
        }
      ],
      "name": "confirmReceiptTheCustomer",
      "outputs": [
        {
          "internalType": "bool",
          "name": "",
          "type": "bool"
        }
      ],
      "stateMutability": "nonpayable",
      "type": "function"
    },
    {
      "inputs": [
        {
          "internalType": "address",
          "name": "_token",
          "type": "address"
        },
        {
          "internalType": "address",
          "name": "_seller",
          "type": "address"
        },
        {
          "internalType": "address",
          "name": "_customer",
          "type": "address"
        },
        {
          "internalType": "uint256",
          "name": "_amount",
          "type": "uint256"
        },
        {
          "internalType": "bytes32[2]",
          "name": "_title",
          "type": "bytes32[2]"
        },
        {
          "internalType": "uint256",
          "name": "_maturitiyTime",
          "type": "uint256"
        }
      ],
      "name": "createOrder",
      "outputs": [
        {
          "internalType": "bool",
          "name": "success",
          "type": "bool"
        }
      ],
      "stateMutability": "nonpayable",
      "type": "function"
    },
    {
      "inputs": [
        {
          "internalType": "address",
          "name": "_from",
          "type": "address"
        },
        {
          "internalType": "uint256",
          "name": "_orderID",
          "type": "uint256"
        },
        {
          "internalType": "enum IPalindromeOrderBook.Status",
          "name": "_status",
          "type": "uint8"
        }
      ],
      "name": "deleteOrder",
      "outputs": [
        {
          "internalType": "bool",
          "name": "status",
          "type": "bool"
        }
      ],
      "stateMutability": "nonpayable",
      "type": "function"
    },
    {
      "inputs": [],
      "name": "factory",
      "outputs": [
        {
          "internalType": "address",
          "name": "",
          "type": "address"
        }
      ],
      "stateMutability": "view",
      "type": "function"
    },
    {
      "inputs": [
        {
          "internalType": "address",
          "name": "",
          "type": "address"
        },
        {
          "internalType": "uint256",
          "name": "",
          "type": "uint256"
        }
      ],
      "name": "getOrder",
      "outputs": [
        {
          "internalType": "address",
          "name": "token",
          "type": "address"
        },
        {
          "internalType": "address",
          "name": "seller",
          "type": "address"
        },
        {
          "internalType": "address",
          "name": "customer",
          "type": "address"
        },
        {
          "internalType": "uint256",
          "name": "orderID",
          "type": "uint256"
        },
        {
          "internalType": "enum IPalindromeOrderBook.Status",
          "name": "status",
          "type": "uint8"
        },
        {
          "internalType": "uint256",
          "name": "amount",
          "type": "uint256"
        },
        {
          "internalType": "bytes32",
          "name": "_title0",
          "type": "bytes32"
        },
        {
          "internalType": "bytes32",
          "name": "_title1",
          "type": "bytes32"
        },
        {
          "internalType": "uint256",
          "name": "openingTime",
          "type": "uint256"
        },
        {
          "internalType": "uint256",
          "name": "closingTime",
          "type": "uint256"
        },
        {
          "internalType": "uint256",
          "name": "maturityTime",
          "type": "uint256"
        }
      ],
      "stateMutability": "view",
      "type": "function"
    },
    {
      "inputs": [
        {
          "internalType": "address",
          "name": "_from",
          "type": "address"
        },
        {
          "internalType": "uint256",
          "name": "_orderID",
          "type": "uint256"
        }
      ],
      "name": "getOrderAmount",
      "outputs": [
        {
          "internalType": "uint256",
          "name": "",
          "type": "uint256"
        }
      ],
      "stateMutability": "view",
      "type": "function"
    },
    {
      "inputs": [
        {
          "internalType": "address",
          "name": "_from",
          "type": "address"
        },
        {
          "internalType": "uint256",
          "name": "_orderID",
          "type": "uint256"
        }
      ],
      "name": "getOrderData",
      "outputs": [
        {
          "components": [
            {
              "internalType": "address",
              "name": "token",
              "type": "address"
            },
            {
              "internalType": "address",
              "name": "seller",
              "type": "address"
            },
            {
              "internalType": "address",
              "name": "customer",
              "type": "address"
            },
            {
              "internalType": "uint256",
              "name": "orderID",
              "type": "uint256"
            },
            {
              "internalType": "enum IPalindromeOrderBook.Status",
              "name": "status",
              "type": "uint8"
            },
            {
              "internalType": "uint256",
              "name": "amount",
              "type": "uint256"
            },
            {
              "internalType": "bytes32",
              "name": "_title0",
              "type": "bytes32"
            },
            {
              "internalType": "bytes32",
              "name": "_title1",
              "type": "bytes32"
            },
            {
              "internalType": "uint256",
              "name": "openingTime",
              "type": "uint256"
            },
            {
              "internalType": "uint256",
              "name": "closingTime",
              "type": "uint256"
            },
            {
              "internalType": "uint256",
              "name": "maturityTime",
              "type": "uint256"
            }
          ],
          "internalType": "struct IPalindromeOrderBook.Order",
          "name": "",
          "type": "tuple"
        }
      ],
      "stateMutability": "view",
      "type": "function"
    },
    {
      "inputs": [],
      "name": "getOrderIDCount",
      "outputs": [
        {
          "internalType": "uint256",
          "name": "orderID",
          "type": "uint256"
        }
      ],
      "stateMutability": "view",
      "type": "function"
    },
    {
      "inputs": [
        {
          "internalType": "address",
          "name": "_from",
          "type": "address"
        },
        {
          "internalType": "uint256",
          "name": "_orderID",
          "type": "uint256"
        }
      ],
      "name": "getOrderStatus",
      "outputs": [
        {
          "internalType": "enum IPalindromeOrderBook.Status",
          "name": "status",
          "type": "uint8"
        }
      ],
      "stateMutability": "view",
      "type": "function"
    },
    {
      "inputs": [
        {
          "internalType": "address",
          "name": "_from",
          "type": "address"
        },
        {
          "internalType": "uint256",
          "name": "_orderID",
          "type": "uint256"
        }
      ],
      "name": "getOrderToken",
      "outputs": [
        {
          "internalType": "address",
          "name": "token",
          "type": "address"
        }
      ],
      "stateMutability": "view",
      "type": "function"
    },
    {
      "inputs": [
        {
          "internalType": "address",
          "name": "_paymentSystemUID",
          "type": "address"
        },
        {
          "internalType": "address",
          "name": "_mediator",
          "type": "address"
        }
      ],
      "name": "initializeOrderBook",
      "outputs": [],
      "stateMutability": "nonpayable",
      "type": "function"
    },
    {
      "inputs": [
        {
          "internalType": "address",
          "name": "_token",
          "type": "address"
        },
        {
          "internalType": "address",
          "name": "_from",
          "type": "address"
        },
        {
          "internalType": "address",
          "name": "_to",
          "type": "address"
        },
        {
          "internalType": "uint256",
          "name": "_orderID",
          "type": "uint256"
        },
        {
          "internalType": "uint256",
          "name": "_amount",
          "type": "uint256"
        },
        {
          "internalType": "bytes32[2]",
          "name": "_title",
          "type": "bytes32[2]"
        }
      ],
      "name": "keepTrackOrderCreated",
      "outputs": [],
      "stateMutability": "nonpayable",
      "type": "function"
    },
    {
      "inputs": [],
      "name": "mediator",
      "outputs": [
        {
          "internalType": "address",
          "name": "",
          "type": "address"
        }
      ],
      "stateMutability": "view",
      "type": "function"
    },
    {
      "inputs": [
        {
          "internalType": "address",
          "name": "_from",
          "type": "address"
        },
        {
          "internalType": "uint256",
          "name": "_orderID",
          "type": "uint256"
        }
      ],
      "name": "openDispute",
      "outputs": [
        {
          "internalType": "bool",
          "name": "",
          "type": "bool"
        }
      ],
      "stateMutability": "nonpayable",
      "type": "function"
    },
    {
      "inputs": [],
      "name": "orderIDCount",
      "outputs": [
        {
          "internalType": "uint256",
          "name": "",
          "type": "uint256"
        }
      ],
      "stateMutability": "view",
      "type": "function"
    },
    {
      "inputs": [],
      "name": "paymentSystemUID",
      "outputs": [
        {
          "internalType": "address",
          "name": "",
          "type": "address"
        }
      ],
      "stateMutability": "view",
      "type": "function"
    },
    {
      "inputs": [
        {
          "internalType": "address",
          "name": "_owner",
          "type": "address"
        },
        {
          "internalType": "address",
          "name": "_seller",
          "type": "address"
        },
        {
          "internalType": "uint256",
          "name": "_orderID",
          "type": "uint256"
        },
        {
          "internalType": "enum IPalindromeOrderBook.Status",
          "name": "_status",
          "type": "uint8"
        }
      ],
      "name": "setState",
      "outputs": [
        {
          "internalType": "bool",
          "name": "success",
          "type": "bool"
        }
      ],
      "stateMutability": "nonpayable",
      "type": "function"
    },
    {
      "inputs": [
        {
          "internalType": "address",
          "name": "_token",
          "type": "address"
        },
        {
          "internalType": "address",
          "name": "_from",
          "type": "address"
        },
        {
          "internalType": "address",
          "name": "_to",
          "type": "address"
        },
        {
          "internalType": "uint256",
          "name": "_amount",
          "type": "uint256"
        },
        {
          "internalType": "uint256",
          "name": "_orderID",
          "type": "uint256"
        },
        {
          "internalType": "bytes32[2]",
          "name": "_title",
          "type": "bytes32[2]"
        },
        {
          "internalType": "enum IPalindromeOrderBook.Status",
          "name": "_status",
          "type": "uint8"
        }
      ],
      "name": "updateOrCreateOrder",
      "outputs": [
        {
          "internalType": "bool",
          "name": "success",
          "type": "bool"
        }
      ],
      "stateMutability": "nonpayable",
      "type": "function"
    }
  ],
  "bytecode": "0x60a0604052603c6002556000600355600160045534801561001f57600080fd5b5033606081901b6080526123ef610048600039600081816111ff015261122c01526123ef6000f3fe608060405234801561001057600080fd5b50600436106101215760003560e01c8063a80a3baa116100ad578063c45a015511610071578063c45a01551461025b578063c70382d814610263578063d6b264a614610276578063e3d1f8cb1461027e578063edb258411461029157610121565b8063a80a3baa146101f6578063ad254f4214610216578063b4ffafa71461022b578063b99d53b714610233578063bbf047a01461024857610121565b80636d0501f6116100f45780636d0501f6146101955780637046fe21146101aa57806385e1cd99146101bd5780638a274da0146101d0578063a6db90d0146101e357610121565b806332c13e191461012657806338a6e4cd1461014f578063642975ea1461016f5780636a20613714610182575b600080fd5b610139610134366004611d48565b6102bb565b60405161014691906122c4565b60405180910390f35b61016261015d366004611d71565b6103b5565b6040516101469190611f5b565b61016261017d366004611d48565b61068d565b610162610190366004611d48565b610852565b61019d610a28565b6040516101469190611e1a565b6101626101b8366004611cfc565b610a37565b6101626101cb366004611bb7565b610be9565b6101626101de366004611d48565b610d27565b61019d6101f1366004611d48565b610ebf565b610209610204366004611d48565b610ee7565b6040516101469190611f66565b61021e611054565b6040516101469190612363565b61021e61105a565b610246610241366004611c1d565b611060565b005b61021e610256366004611d48565b6111d2565b61019d6111fd565b610246610271366004611b85565b611221565b61019d611328565b61016261028c366004611c83565b611337565b6102a461029f366004611d48565b61154a565b6040516101469b9a99989796959493929190611eef565b6102c3611a7f565b6001600160a01b0380841660009081526005602090815260408083208684528252918290208251610160810184528154851681526001820154851692810192909252600281015490931691810191909152600382015460608201526004820154909190608083019060ff16600781111561034d57634e487b7160e01b600052602160045260246000fd5b600781111561036c57634e487b7160e01b600052602160045260246000fd5b81526020016005820154815260200160068201548152602001600782015481526020016008820154815260200160098201548152602001600a8201548152505090505b92915050565b6001600160a01b0380841660009081526005602090815260408083208684528252808320815161016081018352815486168152600182015486169381019390935260028101549094169082015260038301546060820152600483015491928392608083019060ff16600781111561043c57634e487b7160e01b600052602160045260246000fd5b600781111561045b57634e487b7160e01b600052602160045260246000fd5b81526020016005820154815260200160068201548152602001600782015481526020016008820154815260200160098201548152602001600a82015481525050905060006104aa8286866115bd565b9050806104d25760405162461bcd60e51b81526004016104c99061216e565b60405180910390fd5b6005600083602001516001600160a01b03166001600160a01b031681526020019081526020016000206000868152602001908152602001600020600080820160006101000a8154906001600160a01b0302191690556001820160006101000a8154906001600160a01b0302191690556002820160006101000a8154906001600160a01b03021916905560038201600090556004820160006101000a81549060ff021916905560058201600090556006820160009055600782016000905560088201600090556009820160009055600a82016000905550506005600083604001516001600160a01b03166001600160a01b031681526020019081526020016000206000868152602001908152602001600020600080820160006101000a8154906001600160a01b0302191690556001820160006101000a8154906001600160a01b0302191690556002820160006101000a8154906001600160a01b03021916905560038201600090556004820160006101000a81549060ff021916905560058201600090556006820160009055600782016000905560088201600090556009820160009055600a82016000905550506001925050509392505050565b600082826001806001600160a01b038416600090815260056020908152604080832086845290915290206004015460ff1660078111156106dd57634e487b7160e01b600052602160045260246000fd5b146106fa5760405162461bcd60e51b81526004016104c990612240565b6001600160a01b0380871660009081526005602090815260408083208984528252808320815161016081018352815486168152600182015486169381019390935260028101549094169082015260038301546060820152600483015491929091608083019060ff16600781111561078157634e487b7160e01b600052602160045260246000fd5b60078111156107a057634e487b7160e01b600052602160045260246000fd5b81526020016005820154815260200160068201548152602001600782015481526020016008820154815260200160098201548152602001600a820154815250509050866001600160a01b031681604001516001600160a01b0316146108175760405162461bcd60e51b81526004016104c9906120bc565b6000610825828860056115bd565b9050806108445760405162461bcd60e51b81526004016104c990612137565b506001979650505050505050565b6000828282806001600160a01b038416600090815260056020908152604080832086845290915290206004015460ff1660078111156108a157634e487b7160e01b600052602160045260246000fd5b146108be5760405162461bcd60e51b81526004016104c990612240565b6001600160a01b0380871660009081526005602090815260408083208984528252808320815161016081018352815486168152600182015486169381019390935260028101549094169082015260038301546060820152600483015491929091608083019060ff16600781111561094557634e487b7160e01b600052602160045260246000fd5b600781111561096457634e487b7160e01b600052602160045260246000fd5b81526020016005820154815260200160068201548152602001600782015481526020016008820154815260200160098201548152602001600a820154815250509050866001600160a01b031681602001516001600160a01b031614806109df5750866001600160a01b031681604001516001600160a01b0316145b6109fb5760405162461bcd60e51b81526004016104c990611fab565b6000610a09828860046115bd565b9050806108445760405162461bcd60e51b81526004016104c99061216e565b6001546001600160a01b031681565b60015460009085906001600160a01b03808316911614610a695760405162461bcd60e51b81526004016104c99061228d565b6001600160a01b0380861660009081526005602090815260408083208884528252808320815161016081018352815486168152600182015486169381019390935260028101549094169082015260038301546060820152600483015491929091608083019060ff166007811115610af057634e487b7160e01b600052602160045260246000fd5b6007811115610b0f57634e487b7160e01b600052602160045260246000fd5b81526020016005820154815260200160068201548152602001600782015481526020016008820154815260200160098201548152602001600a8201548152505090506000610b5e8287876115bd565b905080610b7d5760405162461bcd60e51b81526004016104c9906121dc565b6004856007811115610b9f57634e487b7160e01b600052602160045260246000fd5b1480610bca57506003856007811115610bc857634e487b7160e01b600052602160045260246000fd5b145b1561084457610bda8787876103b5565b50506001979650505050505050565b600080306001600160a01b031663b4ffafa76040518163ffffffff1660e01b815260040160206040518083038186803b158015610c2557600080fd5b505afa158015610c39573d6000803e3d6000fd5b505050506040513d601f19601f82011682018060405250810190610c5d9190611dd3565b9050610c7088888884898960008a611708565b915081610c8f5760405162461bcd60e51b81526004016104c990612085565b600160036000828254610ca2919061236c565b9091555060009050817f37c6225f4982e8c1352662a6dc83d76aaf4600bfe7b0de64c09a7a509d10d11c308a8a8d8b8b600060200201518c60016020020151426002548e610cf09190612384565b610cfa904261236c565b8e604051610d119a99989796959493929190611e2e565b60405180910390a3506001979650505050505050565b600082826001806001600160a01b038416600090815260056020908152604080832086845290915290206004015460ff166007811115610d7757634e487b7160e01b600052602160045260246000fd5b14610d945760405162461bcd60e51b81526004016104c990612240565b6001600160a01b0380871660009081526005602090815260408083208984528252808320815161016081018352815486168152600182015486169381019390935260028101549094169082015260038301546060820152600483015491929091608083019060ff166007811115610e1b57634e487b7160e01b600052602160045260246000fd5b6007811115610e3a57634e487b7160e01b600052602160045260246000fd5b81526020016005820154815260200160068201548152602001600782015481526020016008820154815260200160098201548152602001600a820154815250509050866001600160a01b031681604001516001600160a01b031614610eb15760405162461bcd60e51b81526004016104c990611fed565b6000610a09828860026115bd565b6001600160a01b03918216600090815260056020908152604080832093835292905220541690565b6001600160a01b0380831660009081526005602090815260408083208584528252808320815161016081018352815486168152600182015486169381019390935260028101549094169082015260038301546060820152600483015491928392608083019060ff166007811115610f6e57634e487b7160e01b600052602160045260246000fd5b6007811115610f8d57634e487b7160e01b600052602160045260246000fd5b81526020016005820154815260200160068201548152602001600782015481526020016008820154815260200160098201548152602001600a820154815250509050836001600160a01b031681602001516001600160a01b031614806110085750836001600160a01b031681604001516001600160a01b0316145b6110245760405162461bcd60e51b81526004016104c990611fab565b50506001600160a01b03919091166000908152600560209081526040808320938352929052206004015460ff1690565b60035481565b60035490565b600160036000828254611073919061236c565b90915550506001600160a01b0380861660009081526005602090815260408083208784528252808320815161016081018352815486168152600182015486169381019390935260028101549094169082015260038301546060820152600483015491929091608083019060ff1660078111156110ff57634e487b7160e01b600052602160045260246000fd5b600781111561111e57634e487b7160e01b600052602160045260246000fd5b815260058201546020820152600682015460408201526007820154606082015260088201546080820152600982015460a0820152600a9091015460c09091015290506003847f37c6225f4982e8c1352662a6dc83d76aaf4600bfe7b0de64c09a7a509d10d11c3089898c8989600060200201518a600160200201518a61010001518b61012001518c61014001516040516111c19a99989796959493929190611e2e565b60405180910390a350505050505050565b6001600160a01b03919091166000908152600560208181526040808420948452939052919020015490565b7f000000000000000000000000000000000000000000000000000000000000000081565b336001600160a01b037f000000000000000000000000000000000000000000000000000000000000000016146112695760405162461bcd60e51b81526004016104c990611f74565b6001600160a01b03821661128f5760405162461bcd60e51b81526004016104c9906120f3565b6001600160a01b0381166112b55760405162461bcd60e51b81526004016104c9906121a5565b600080546001600160a01b038085166001600160a01b03199283161792839055600180548583169316929092179182905560405130938216927ffaa26e48302948bffb5b7c83ab8db0b25572feabec87e37f1795c1eb7d16dbdc9261131c92911690611e1a565b60405180910390a35050565b6000546001600160a01b031681565b6001600160a01b0380871660009081526005602090815260408083208784528252808320815161016081018352815486168152600182015486169381019390935260028101549094169082015260038301546060820152600483015491928392608083019060ff1660078111156113be57634e487b7160e01b600052602160045260246000fd5b60078111156113dd57634e487b7160e01b600052602160045260246000fd5b81526020016005820154815260200160068201548152602001600782015481526020016008820154815260200160098201548152602001600a820154815250509050886001600160a01b031681600001516001600160a01b0316146114545760405162461bcd60e51b81526004016104c990612041565b61145e8886611a3e565b1561149a5760006114708287866115bd565b90508061148f5760405162461bcd60e51b81526004016104c99061220b565b60019250505061153f565b6040516385e1cd9960e01b815230906385e1cd99906114c8908c908c908c908c908b90600090600401611e87565b602060405180830381600087803b1580156114e257600080fd5b505af11580156114f6573d6000803e3d6000fd5b505050506040513d601f19601f8201168201806040525081019061151a9190611dac565b9150816115395760405162461bcd60e51b81526004016104c990612085565b60019150505b979650505050505050565b6005602081815260009384526040808520909152918352912080546001820154600283015460038401546004850154958501546006860154600787015460088801546009890154600a909901546001600160a01b039889169a978916999890961697949660ff169593949293919290918b565b6020808401516001600160a01b03166000908152600582526040808220858352909252908120600401805483919060ff1916600183600781111561161157634e487b7160e01b600052602160045260246000fd5b02179055506040808501516001600160a01b0316600090815260056020908152828220868352905220600401805483919060ff1916600183600781111561166857634e487b7160e01b600052602160045260246000fd5b021790555081600781111561168d57634e487b7160e01b600052602160045260246000fd5b837f8d6988262c489dfcdbbad6c4b99878b18aa3037a1efc6fe268c3c9e1cbca6665308760200151886040015189600001518a60a001518b60c001518c60e001518d61010001518e61012001518f61014001516040516116f69a99989796959493929190611e2e565b60405180910390a35060019392505050565b60006040518061016001604052808a6001600160a01b03168152602001896001600160a01b03168152602001886001600160a01b0316815260200187815260200184600781111561176957634e487b7160e01b600052602160045260246000fd5b81526020810187905285516040820152606001856001602002015181526020014281526020016002548461179d9190612384565b6117a7904261236c565b815260209081018490526001600160a01b03808b1660009081526005835260408082208b8352845290819020845181549084166001600160a01b031991821617825593850151600180830180549286169287169290921790915591850151600282018054919094169416939093179091556060830151600383015560808301516004830180549192909160ff19169083600781111561185657634e487b7160e01b600052602160045260246000fd5b021790555060a0820151816005015560c0820151816006015560e082015181600701556101008201518160080155610120820151816009015561014082015181600a01559050506040518061016001604052808a6001600160a01b03168152602001896001600160a01b03168152602001886001600160a01b031681526020018781526020018460078111156118fc57634e487b7160e01b600052602160045260246000fd5b8152602081018790528551604082015260600185600160200201518152602001428152602001600254846119309190612384565b61193a904261236c565b815260209081018490526001600160a01b03808a1660009081526005835260408082208b8352845290819020845181549084166001600160a01b031991821617825593850151600180830180549286169287169290921790915591850151600282018054919094169416939093179091556060830151600383015560808301516004830180549192909160ff1916908360078111156119e957634e487b7160e01b600052602160045260246000fd5b021790555060a0820151600582015560c0820151600682015560e082015160078201556101008201516008820155610120820151600982015561014090910151600a9091015550600198975050505050505050565b6001600160a01b03828116600090815260056020908152604080832085845290915281206002015490911615611a76575060016103af565b50600092915050565b604080516101608101825260008082526020820181905291810182905260608101829052906080820190815260006020820181905260408201819052606082018190526080820181905260a0820181905260c09091015290565b80356001600160a01b0381168114611af057600080fd5b919050565b600082601f830112611b05578081fd5b6040516040810181811067ffffffffffffffff82111715611b3457634e487b7160e01b83526041600452602483fd5b8060405250808385604086011115611b4a578384fd5b835b6002811015611b6b578135835260209283019290910190600101611b4c565b509195945050505050565b803560088110611af057600080fd5b60008060408385031215611b97578182fd5b611ba083611ad9565b9150611bae60208401611ad9565b90509250929050565b60008060008060008060e08789031215611bcf578182fd5b611bd887611ad9565b9550611be660208801611ad9565b9450611bf460408801611ad9565b935060608701359250611c0a8860808901611af5565b915060c087013590509295509295509295565b60008060008060008060e08789031215611c35578182fd5b611c3e87611ad9565b9550611c4c60208801611ad9565b9450611c5a60408801611ad9565b93506060870135925060808701359150611c778860a08901611af5565b90509295509295509295565b6000806000806000806000610100888a031215611c9e578081fd5b611ca788611ad9565b9650611cb560208901611ad9565b9550611cc360408901611ad9565b94506060880135935060808801359250611ce08960a08a01611af5565b9150611cee60e08901611b76565b905092959891949750929550565b60008060008060808587031215611d11578384fd5b611d1a85611ad9565b9350611d2860208601611ad9565b925060408501359150611d3d60608601611b76565b905092959194509250565b60008060408385031215611d5a578182fd5b611d6383611ad9565b946020939093013593505050565b600080600060608486031215611d85578283fd5b611d8e84611ad9565b925060208401359150611da360408501611b76565b90509250925092565b600060208284031215611dbd578081fd5b81518015158114611dcc578182fd5b9392505050565b600060208284031215611de4578081fd5b5051919050565b6001600160a01b03169052565b60088110611e1657634e487b7160e01b600052602160045260246000fd5b9052565b6001600160a01b0391909116815260200190565b6001600160a01b039a8b168152988a1660208a01529689166040890152949097166060870152608086019290925260a085015260c084015260e08301939093526101008201929092526101208101919091526101400190565b6001600160a01b03878116825286811660208084019190915290861660408301526060820185905260e082019060808301908560005b6002811015611eda57815184529282019290820190600101611ebd565b505050508260c0830152979650505050505050565b6001600160a01b038c811682528b811660208301528a166040820152606081018990526101608101611f24608083018a611df8565b8760a08301528660c08301528560e08301528461010083015283610120830152826101408301529c9b505050505050505050505050565b901515815260200190565b602081016103af8284611df8565b6020808252601a908201527f42504f423a3a696e697469616c697a6520464f5242494444454e000000000000604082015260600190565b60208082526022908201527f42504f423a3a4f6e6c792053656c6c65722f437573746f6d657220616c6c6f77604082015261195960f21b606082015260800190565b60208082526034908201527f42504f3a3a636f6e6669726d52656365697074546865437573746f6d6572206f6040820152731b9b1e4818dd5cdd1bdb595c88185b1b1bddd95960621b606082015260800190565b60208082526024908201527f42504f3a3a7570646174654f724372656174654f726465722077726f6e67207460408201526337b5b2b760e11b606082015260800190565b60208082526017908201527f42504f423a3a4f72646572206e6f742063726561746564000000000000000000604082015260600190565b6020808252601b908201527f42504f423a3a4f6e6c7920637573746f6d657220616c6c6f7765640000000000604082015260600190565b60208082526024908201527f42504f423a3a5f7061796d656e7453797374656d5549442061646472657373206040820152630697320360e41b606082015260800190565b60208082526018908201527f42504f423a3a6f70656e44697370757465206661696c65640000000000000000604082015260600190565b60208082526018908201527f42504f423a3a63616e63656c4f72646572206661696c65640000000000000000604082015260600190565b6020808252601c908201527f42504f423a3a5f6d65646961746f722061646472657373206973203000000000604082015260600190565b602080825260159082015274109413d08e8e9cd95d14dd185d194819985a5b1959605a1b604082015260600190565b6020808252818101527f42504f423a3a7570646174654f724372656174654f72646572206661696c6564604082015260600190565b6020808252602d908201527f42504f423a3a6f6e6c7945787065637465645374617465202d204e6f7420657860408201526c7065637465642073746174757360981b606082015260800190565b6020808252601b908201527f42504f423a3a4f6e6c79204d65646961746f7220616c6c6f7765640000000000604082015260600190565b6000610160820190506122d8828451611deb565b60208301516122ea6020840182611deb565b5060408301516122fd6040840182611deb565b5060608301516060830152608083015161231a6080840182611df8565b5060a083015160a083015260c083015160c083015260e083015160e083015261010080840151818401525061012080840151818401525061014080840151818401525092915050565b90815260200190565b6000821982111561237f5761237f6123a3565b500190565b600081600019048311821515161561239e5761239e6123a3565b500290565b634e487b7160e01b600052601160045260246000fdfea26469706673582212209677adc3cd5232984f64ab64cebd3caef5492996c7e57e2f0036d56c41faa37964736f6c63430008000033",
  "linkReferences": {},
  "deployedLinkReferences": {}
}