{
  "_format": "hh-sol-artifact-1",
  "contractName": "PalindromeRouter",
  "sourceName": "src/contracts/PalindromeRouter.sol",
  "abi": [
    {
      "inputs": [
        {
          "internalType": "address",
          "name": "_factory",
          "type": "address"
        },
        {
          "internalType": "address",
          "name": "_WETH",
          "type": "address"
        }
      ],
      "stateMutability": "nonpayable",
      "type": "constructor"
    },
    {
      "anonymous": false,
      "inputs": [
        {
          "indexed": true,
          "internalType": "address",
          "name": "from",
          "type": "address"
        },
        {
          "indexed": false,
          "internalType": "uint256",
          "name": "amount",
          "type": "uint256"
        }
      ],
      "name": "Deposit",
      "type": "event"
    },
    {
      "anonymous": false,
      "inputs": [
        {
          "indexed": true,
          "internalType": "address",
          "name": "from",
          "type": "address"
        },
        {
          "indexed": false,
          "internalType": "address",
          "name": "to",
          "type": "address"
        },
        {
          "indexed": false,
          "internalType": "uint256",
          "name": "amount",
          "type": "uint256"
        }
      ],
      "name": "Transfer",
      "type": "event"
    },
    {
      "anonymous": false,
      "inputs": [
        {
          "indexed": true,
          "internalType": "address",
          "name": "to",
          "type": "address"
        },
        {
          "indexed": false,
          "internalType": "uint256",
          "name": "amount",
          "type": "uint256"
        }
      ],
      "name": "Withdrawal",
      "type": "event"
    },
    {
      "inputs": [],
      "name": "WETH",
      "outputs": [
        {
          "internalType": "address",
          "name": "",
          "type": "address"
        }
      ],
      "stateMutability": "view",
      "type": "function"
    },
    {
      "inputs": [
        {
          "internalType": "address",
          "name": "_orderBookUID",
          "type": "address"
        },
        {
          "internalType": "uint256",
          "name": "_orderID",
          "type": "uint256"
        }
      ],
      "name": "cancelOrder",
      "outputs": [
        {
          "internalType": "bool",
          "name": "success",
          "type": "bool"
        }
      ],
      "stateMutability": "nonpayable",
      "type": "function"
    },
    {
      "inputs": [
        {
          "internalType": "address",
          "name": "_orderBookUID",
          "type": "address"
        },
        {
          "internalType": "uint256",
          "name": "_orderID",
          "type": "uint256"
        }
      ],
      "name": "confirmReceiptTheCustomer",
      "outputs": [
        {
          "internalType": "bool",
          "name": "success",
          "type": "bool"
        }
      ],
      "stateMutability": "nonpayable",
      "type": "function"
    },
    {
      "inputs": [
        {
          "internalType": "address",
          "name": "_token",
          "type": "address"
        },
        {
          "internalType": "address",
          "name": "_orderBookUID",
          "type": "address"
        },
        {
          "internalType": "address",
          "name": "_to",
          "type": "address"
        },
        {
          "internalType": "uint256",
          "name": "_amount",
          "type": "uint256"
        },
        {
          "internalType": "bytes32[2]",
          "name": "_title",
          "type": "bytes32[2]"
        },
        {
          "internalType": "uint256",
          "name": "_maturityTime",
          "type": "uint256"
        }
      ],
      "name": "createOrder",
      "outputs": [],
      "stateMutability": "nonpayable",
      "type": "function"
    },
    {
      "inputs": [],
      "name": "createPaymentSystem",
      "outputs": [
        {
          "internalType": "address",
          "name": "paymentSystemUID",
          "type": "address"
        },
        {
          "internalType": "address",
          "name": "orderBookUID",
          "type": "address"
        }
      ],
      "stateMutability": "nonpayable",
      "type": "function"
    },
    {
      "inputs": [],
      "name": "factory",
      "outputs": [
        {
          "internalType": "address",
          "name": "",
          "type": "address"
        }
      ],
      "stateMutability": "view",
      "type": "function"
    },
    {
      "inputs": [
        {
          "internalType": "address",
          "name": "_orderBookUID",
          "type": "address"
        },
        {
          "internalType": "uint256",
          "name": "_orderID",
          "type": "uint256"
        }
      ],
      "name": "getOrderStatus",
      "outputs": [
        {
          "internalType": "enum IPalindromeOrderBook.Status",
          "name": "status",
          "type": "uint8"
        }
      ],
      "stateMutability": "view",
      "type": "function"
    },
    {
      "inputs": [
        {
          "internalType": "address",
          "name": "_orderBookUID",
          "type": "address"
        },
        {
          "internalType": "uint256",
          "name": "_orderID",
          "type": "uint256"
        }
      ],
      "name": "openDispute",
      "outputs": [
        {
          "internalType": "bool",
          "name": "success",
          "type": "bool"
        }
      ],
      "stateMutability": "nonpayable",
      "type": "function"
    },
    {
      "inputs": [
        {
          "internalType": "address",
          "name": "_token",
          "type": "address"
        },
        {
          "internalType": "address",
          "name": "_to",
          "type": "address"
        },
        {
          "internalType": "address",
          "name": "_paymentSystemUID",
          "type": "address"
        },
        {
          "internalType": "uint256",
          "name": "_orderID",
          "type": "uint256"
        },
        {
          "internalType": "bytes32[2]",
          "name": "_title",
          "type": "bytes32[2]"
        },
        {
          "internalType": "uint256",
          "name": "_deadline",
          "type": "uint256"
        }
      ],
      "name": "sendBNBToSellerWithEscrow",
      "outputs": [],
      "stateMutability": "payable",
      "type": "function"
    },
    {
      "inputs": [
        {
          "internalType": "address",
          "name": "_token",
          "type": "address"
        },
        {
          "internalType": "address payable",
          "name": "_to",
          "type": "address"
        },
        {
          "internalType": "address",
          "name": "_orderBookUID",
          "type": "address"
        },
        {
          "internalType": "bytes32[2]",
          "name": "_title",
          "type": "bytes32[2]"
        },
        {
          "internalType": "uint256",
          "name": "_deadline",
          "type": "uint256"
        }
      ],
      "name": "sendBNBWithoutEscrow",
      "outputs": [],
      "stateMutability": "payable",
      "type": "function"
    },
    {
      "inputs": [
        {
          "internalType": "address",
          "name": "_token",
          "type": "address"
        },
        {
          "internalType": "address",
          "name": "_to",
          "type": "address"
        },
        {
          "internalType": "address",
          "name": "_paymentSystemUID",
          "type": "address"
        },
        {
          "internalType": "uint256",
          "name": "_amount",
          "type": "uint256"
        },
        {
          "internalType": "uint256",
          "name": "_orderID",
          "type": "uint256"
        },
        {
          "internalType": "bytes32[2]",
          "name": "_title",
          "type": "bytes32[2]"
        },
        {
          "internalType": "uint256",
          "name": "_deadline",
          "type": "uint256"
        }
      ],
      "name": "sendTokenToSellerWithEscrow",
      "outputs": [],
      "stateMutability": "nonpayable",
      "type": "function"
    },
    {
      "inputs": [
        {
          "internalType": "address",
          "name": "_token",
          "type": "address"
        },
        {
          "internalType": "address",
          "name": "_to",
          "type": "address"
        },
        {
          "internalType": "address",
          "name": "_orderBookUID",
          "type": "address"
        },
        {
          "internalType": "uint256",
          "name": "_amount",
          "type": "uint256"
        },
        {
          "internalType": "bytes32[2]",
          "name": "_title",
          "type": "bytes32[2]"
        },
        {
          "internalType": "uint256",
          "name": "_deadline",
          "type": "uint256"
        }
      ],
      "name": "sendTokenWithoutEscrow",
      "outputs": [
        {
          "internalType": "bool",
          "name": "",
          "type": "bool"
        }
      ],
      "stateMutability": "nonpayable",
      "type": "function"
    },
    {
      "inputs": [
        {
          "internalType": "address",
          "name": "_from",
          "type": "address"
        },
        {
          "internalType": "address",
          "name": "_orderBookUID",
          "type": "address"
        },
        {
          "internalType": "uint256",
          "name": "_orderID",
          "type": "uint256"
        },
        {
          "internalType": "enum IPalindromeOrderBook.Status",
          "name": "_state",
          "type": "uint8"
        }
      ],
      "name": "setState",
      "outputs": [
        {
          "internalType": "bool",
          "name": "success",
          "type": "bool"
        }
      ],
      "stateMutability": "nonpayable",
      "type": "function"
    },
    {
      "inputs": [
        {
          "internalType": "address",
          "name": "_token",
          "type": "address"
        },
        {
          "internalType": "address",
          "name": "_seller",
          "type": "address"
        },
        {
          "internalType": "address",
          "name": "_paymentSystemUID",
          "type": "address"
        },
        {
          "internalType": "address",
          "name": "_orderBookUID",
          "type": "address"
        },
        {
          "internalType": "uint256",
          "name": "_orderID",
          "type": "uint256"
        },
        {
          "internalType": "uint256",
          "name": "_deadline",
          "type": "uint256"
        }
      ],
      "name": "withDrawCustomer",
      "outputs": [],
      "stateMutability": "nonpayable",
      "type": "function"
    },
    {
      "inputs": [
        {
          "internalType": "address",
          "name": "_seller",
          "type": "address"
        },
        {
          "internalType": "address",
          "name": "_paymentSystemUID",
          "type": "address"
        },
        {
          "internalType": "address",
          "name": "_orderBookUID",
          "type": "address"
        },
        {
          "internalType": "uint256",
          "name": "_orderID",
          "type": "uint256"
        },
        {
          "internalType": "uint256",
          "name": "_deadline",
          "type": "uint256"
        }
      ],
      "name": "withDrawCustomerBNB",
      "outputs": [],
      "stateMutability": "nonpayable",
      "type": "function"
    },
    {
      "inputs": [
        {
          "internalType": "address",
          "name": "_token",
          "type": "address"
        },
        {
          "internalType": "address",
          "name": "_paymentSystemUID",
          "type": "address"
        },
        {
          "internalType": "uint256",
          "name": "_feeAmount",
          "type": "uint256"
        },
        {
          "internalType": "uint256",
          "name": "_deadline",
          "type": "uint256"
        }
      ],
      "name": "withDrawFees",
      "outputs": [],
      "stateMutability": "nonpayable",
      "type": "function"
    },
    {
      "inputs": [
        {
          "internalType": "address",
          "name": "_paymentSystemUID",
          "type": "address"
        },
        {
          "internalType": "uint256",
          "name": "_feeAmount",
          "type": "uint256"
        },
        {
          "internalType": "uint256",
          "name": "_deadline",
          "type": "uint256"
        }
      ],
      "name": "withDrawFeesBNB",
      "outputs": [],
      "stateMutability": "nonpayable",
      "type": "function"
    },
    {
      "inputs": [
        {
          "internalType": "address",
          "name": "_token",
          "type": "address"
        },
        {
          "internalType": "address",
          "name": "_paymentSystemUID",
          "type": "address"
        },
        {
          "internalType": "address",
          "name": "_orderBookUID",
          "type": "address"
        },
        {
          "internalType": "uint256",
          "name": "_orderID",
          "type": "uint256"
        },
        {
          "internalType": "uint256",
          "name": "_deadline",
          "type": "uint256"
        }
      ],
      "name": "withDrawSeller",
      "outputs": [],
      "stateMutability": "nonpayable",
      "type": "function"
    },
    {
      "inputs": [
        {
          "internalType": "address",
          "name": "_paymentSystemUID",
          "type": "address"
        },
        {
          "internalType": "address",
          "name": "_orderBookUID",
          "type": "address"
        },
        {
          "internalType": "uint256",
          "name": "_orderID",
          "type": "uint256"
        },
        {
          "internalType": "uint256",
          "name": "_deadline",
          "type": "uint256"
        }
      ],
      "name": "withDrawSellerBNB",
      "outputs": [],
      "stateMutability": "nonpayable",
      "type": "function"
    },
    {
      "inputs": [],
      "name": "withdraw",
      "outputs": [],
      "stateMutability": "nonpayable",
      "type": "function"
    },
    {
      "inputs": [
        {
          "internalType": "address",
          "name": "_token",
          "type": "address"
        },
        {
          "internalType": "uint256",
          "name": "_amount",
          "type": "uint256"
        }
      ],
      "name": "withdrawToken",
      "outputs": [],
      "stateMutability": "nonpayable",
      "type": "function"
    }
  ],
  "bytecode": "0x60c0604052600180553480156200001557600080fd5b506040516200299c3803806200299c8339810160408190526200003891620000cf565b6001600160a01b0382166200006a5760405162461bcd60e51b8152600401620000619062000106565b60405180910390fd5b6001600160a01b038116620000935760405162461bcd60e51b815260040162000061906200013d565b6001600160601b0319606092831b8116608052911b1660a05262000174565b80516001600160a01b0381168114620000ca57600080fd5b919050565b60008060408385031215620000e2578182fd5b620000ed83620000b2565b9150620000fd60208401620000b2565b90509250929050565b6020808252601a908201527f4250523a3a5f666163746f727920616464726573732069732030000000000000604082015260600190565b60208082526017908201527f4250523a3a5f5745544820616464726573732069732030000000000000000000604082015260600190565b60805160601c60a05160601c6127d2620001ca60003960008181610b9c01528181610c6601526115880152600081816109fd01528181610d540152818161142e015281816115ac015261173901526127d26000f3fe6080604052600436106101295760003560e01c80636e46f0aa116100ab5780639e281a981161006f5780639e281a9814610301578063a80a3baa14610321578063ad5c46481461034e578063c45a015514610370578063d13072d114610385578063df0dc3e7146103a557610129565b80636e46f0aa146102615780637046fe211461028157806385e1cd99146102a15780638a274da0146102c15780639b46049b146102e157610129565b80633e9a3a1c116100f25780633e9a3a1c146101b8578063507e8f9f146101cb5780635a38d0cd146101eb578063642975ea146102215780636a2061371461024157610129565b80623cb5ed1461012e57806303238dfc146101505780632121bc921461017057806330ee97af146101835780633ccfd60b146101a3575b600080fd5b34801561013a57600080fd5b5061014e610149366004611e10565b6103c8565b005b34801561015c57600080fd5b5061014e61016b366004611cdd565b6104a5565b61014e61017e366004611c7b565b610659565b34801561018f57600080fd5b5061014e61019e366004611eda565b61083d565b3480156101af57600080fd5b5061014e6109f9565b61014e6101c6366004611d4a565b610ae8565b3480156101d757600080fd5b5061014e6101e6366004611eda565b610d12565b3480156101f757600080fd5b5061020b610206366004611d4a565b610e22565b60405161021891906121d1565b60405180910390f35b34801561022d57600080fd5b5061020b61023c366004611f1f565b610feb565b34801561024d57600080fd5b5061020b61025c366004611f1f565b611093565b34801561026d57600080fd5b5061014e61027c366004611f4a565b6110c4565b34801561028d57600080fd5b5061020b61029c366004611e88565b611112565b3480156102ad57600080fd5b5061014e6102bc366004611d4a565b6111c0565b3480156102cd57600080fd5b5061020b6102dc366004611f1f565b611293565b3480156102ed57600080fd5b5061014e6102fc366004611db6565b6112c4565b34801561030d57600080fd5b5061014e61031c366004611f1f565b61142a565b34801561032d57600080fd5b5061034161033c366004611f1f565b6114fe565b60405161021891906121dc565b34801561035a57600080fd5b50610363611586565b6040516102189190612033565b34801561037c57600080fd5b506103636115aa565b34801561039157600080fd5b5061014e6103a0366004611db6565b6115ce565b3480156103b157600080fd5b506103ba611734565b604051610218929190612060565b80428110156103f25760405162461bcd60e51b81526004016103e9906124ff565b60405180910390fd5b87336001600160a01b038916141561041c5760405162461bcd60e51b81526004016103e9906126b6565b6040516343e1e9e360e01b81526001600160a01b038816906343e1e9e390610452908c9033908d908c908c908c9060040161207a565b600060405180830381600087803b15801561046c57600080fd5b505af1158015610480573d6000803e3d6000fd5b5061049a925050506001600160a01b0382163389896117dd565b505050505050505050565b80428110156104c65760405162461bcd60e51b81526004016103e9906124ff565b336104e35760405162461bcd60e51b81526004016103e9906123cc565b6040516305df823d60e51b81526000906001600160a01b0386169063bbf047a0906105149033908890600401612047565b60206040518083038186803b15801561052c57600080fd5b505afa158015610540573d6000803e3d6000fd5b505050506040513d601f19601f820116820180604052508101906105649190611fba565b90506000866001600160a01b0316633782dbef8a338b89876040518663ffffffff1660e01b815260040161059c9594939291906120fa565b602060405180830381600087803b1580156105b657600080fd5b505af11580156105ca573d6000803e3d6000fd5b505050506040513d601f19601f820116820180604052508101906105ee9190611f7e565b90508061060d5760405162461bcd60e51b81526004016103e9906122f0565b336001600160a01b03167f7fcf532c15f0a6db0bd6d0e038bea71d30d808c7d98cb3bf7268a95bf5081b658360405161064691906126f7565b60405180910390a2505050505050505050565b60015460011461067b5760405162461bcd60e51b81526004016103e99061252c565b600060015580428110156106a15760405162461bcd60e51b81526004016103e9906124ff565b336001600160a01b03861614156106ca5760405162461bcd60e51b81526004016103e990612606565b60006106d534611835565b90506000856001600160a01b031663b4ffafa76040518163ffffffff1660e01b815260040160206040518083038186803b15801561071257600080fd5b505afa158015610726573d6000803e3d6000fd5b505050506040513d601f19601f8201168201806040525081019061074a9190611fba565b6040519091506001600160a01b0388169083156108fc029084906000818181858888f19350505050158015610783573d6000803e3d6000fd5b5060405163b99d53b760e01b81526001600160a01b0387169063b99d53b7906107ba908b9033908c90879034908d9060040161207a565b600060405180830381600087803b1580156107d457600080fd5b505af11580156107e8573d6000803e3d6000fd5b50505050336001600160a01b03167fddf252ad1be2c89b69c2b068fc378daa952ba7f163c4a11628f55a4df523b3ef8834604051610827929190612047565b60405180910390a2505060018055505050505050565b804281101561085e5760405162461bcd60e51b81526004016103e9906124ff565b3361087b5760405162461bcd60e51b81526004016103e990612327565b6040516305df823d60e51b81526000906001600160a01b0386169063bbf047a0906108ac9033908890600401612047565b60206040518083038186803b1580156108c457600080fd5b505afa1580156108d8573d6000803e3d6000fd5b505050506040513d601f19601f820116820180604052508101906108fc9190611fba565b9050600061090982611835565b90506000876001600160a01b0316637083a0823388856040518463ffffffff1660e01b815260040161093d939291906121b0565b602060405180830381600087803b15801561095757600080fd5b505af115801561096b573d6000803e3d6000fd5b505050506040513d601f19601f8201168201806040525081019061098f9190611f7e565b9050806109ae5760405162461bcd60e51b81526004016103e99061221d565b336001600160a01b03167f7fcf532c15f0a6db0bd6d0e038bea71d30d808c7d98cb3bf7268a95bf5081b65836040516109e791906126f7565b60405180910390a25050505050505050565b60007f00000000000000000000000000000000000000000000000000000000000000006001600160a01b031663017e7e586040518163ffffffff1660e01b8152600401602060405180830381600087803b158015610a5657600080fd5b505af1158015610a6a573d6000803e3d6000fd5b505050506040513d601f19601f82011682018060405250810190610a8e9190611c26565b9050336001600160a01b03821614610ab85760405162461bcd60e51b81526004016103e990612403565b60405133904780156108fc02916000818181858888f19350505050158015610ae4573d6000803e3d6000fd5b5050565b8042811015610b095760405162461bcd60e51b81526004016103e9906124ff565b336001600160a01b0387161415610b325760405162461bcd60e51b81526004016103e9906124be565b6040516343e1e9e360e01b81526001600160a01b038616906343e1e9e390610b68908a9033908b9034908b908b9060040161207a565b600060405180830381600087803b158015610b8257600080fd5b505af1158015610b96573d6000803e3d6000fd5b505050507f00000000000000000000000000000000000000000000000000000000000000006001600160a01b031663d0e30db0346040518263ffffffff1660e01b81526004016000604051808303818588803b158015610bf557600080fd5b505af1158015610c09573d6000803e3d6000fd5b5050505050336001600160a01b03167fe1fffcc4923d04b559f4d29a8bfc6cda04eb5b0d3c460751c2402c5c5cc9109c34604051610c4791906126f7565b60405180910390a260405163a9059cbb60e01b81526001600160a01b037f0000000000000000000000000000000000000000000000000000000000000000169063a9059cbb90610c9d9088903490600401612047565b602060405180830381600087803b158015610cb757600080fd5b505af1158015610ccb573d6000803e3d6000fd5b505050506040513d601f19601f82011682018060405250810190610cef9190611f7e565b610d0957634e487b7160e01b600052600160045260246000fd5b50505050505050565b8042811015610d335760405162461bcd60e51b81526004016103e9906124ff565b33610d505760405162461bcd60e51b81526004016103e99061258d565b60007f00000000000000000000000000000000000000000000000000000000000000006001600160a01b031663017e7e586040518163ffffffff1660e01b8152600401602060405180830381600087803b158015610dad57600080fd5b505af1158015610dc1573d6000803e3d6000fd5b505050506040513d601f19601f82011682018060405250810190610de59190611c26565b9050336001600160a01b03821614610e0f5760405162461bcd60e51b81526004016103e9906122b9565b610e1a868686611872565b505050505050565b6000600154600114610e465760405162461bcd60e51b81526004016103e99061252c565b60006001558142811015610e6c5760405162461bcd60e51b81526004016103e9906124ff565b336001600160a01b0388161415610e955760405162461bcd60e51b81526004016103e990612606565b6000610ea086611835565b9050610eac8987611914565b610eb789898361192f565b6000876001600160a01b031663b4ffafa76040518163ffffffff1660e01b815260040160206040518083038186803b158015610ef257600080fd5b505afa158015610f06573d6000803e3d6000fd5b505050506040513d601f19601f82011682018060405250810190610f2a9190611fba565b60405163b99d53b760e01b81529091506001600160a01b0389169063b99d53b790610f63908d9033908e9087908e908e9060040161207a565b600060405180830381600087803b158015610f7d57600080fd5b505af1158015610f91573d6000803e3d6000fd5b50505050336001600160a01b03167fddf252ad1be2c89b69c2b068fc378daa952ba7f163c4a11628f55a4df523b3ef8a89604051610fd0929190612047565b60405180910390a25050600180805598975050505050505050565b604051633214baf560e11b81526000906001600160a01b0384169063642975ea9061101c9033908690600401612047565b602060405180830381600087803b15801561103657600080fd5b505af115801561104a573d6000803e3d6000fd5b505050506040513d601f19601f8201168201806040525081019061106e9190611f7e565b90508061108d5760405162461bcd60e51b81526004016103e990612395565b92915050565b604051636a20613760e01b81526000906001600160a01b03841690636a2061379061101c9033908690600401612047565b80428110156110e55760405162461bcd60e51b81526004016103e9906124ff565b336111025760405162461bcd60e51b81526004016103e99061258d565b61110c8484611944565b50505050565b604051637046fe2160e01b81526000906001600160a01b03851690637046fe2190611147903390899088908890600401612152565b602060405180830381600087803b15801561116157600080fd5b505af1158015611175573d6000803e3d6000fd5b505050506040513d601f19601f820116820180604052508101906111999190611f7e565b9050806111b85760405162461bcd60e51b81526004016103e990612395565b949350505050565b336001600160a01b03851614156111e95760405162461bcd60e51b81526004016103e99061246f565b6040516385e1cd9960e01b81526000906001600160a01b038716906385e1cd9990611222908a9033908a908a908a908a906004016120b5565b602060405180830381600087803b15801561123c57600080fd5b505af1158015611250573d6000803e3d6000fd5b505050506040513d601f19601f820116820180604052508101906112749190611f7e565b905080610d095760405162461bcd60e51b81526004016103e99061228b565b6040516304513a6d60e51b81526000906001600160a01b03841690638a274da09061101c9033908690600401612047565b80428110156112e55760405162461bcd60e51b81526004016103e9906124ff565b336113025760405162461bcd60e51b81526004016103e990612327565b6040516305df823d60e51b81526000906001600160a01b0386169063bbf047a0906113339033908890600401612047565b60206040518083038186803b15801561134b57600080fd5b505afa15801561135f573d6000803e3d6000fd5b505050506040513d601f19601f820116820180604052508101906113839190611fba565b90506000866001600160a01b0316636370f94c893388866040518563ffffffff1660e01b81526004016113b99493929190612187565b602060405180830381600087803b1580156113d357600080fd5b505af11580156113e7573d6000803e3d6000fd5b505050506040513d601f19601f8201168201806040525081019061140b9190611f7e565b9050806109ae5760405162461bcd60e51b81526004016103e990612556565b60007f00000000000000000000000000000000000000000000000000000000000000006001600160a01b031663017e7e586040518163ffffffff1660e01b8152600401602060405180830381600087803b15801561148757600080fd5b505af115801561149b573d6000803e3d6000fd5b505050506040513d601f19601f820116820180604052508101906114bf9190611c26565b9050336001600160a01b038216146114e95760405162461bcd60e51b81526004016103e990612403565b8261110c6001600160a01b03821633856119e4565b6040516354051dd560e11b81526000906001600160a01b0384169063a80a3baa9061152f9033908690600401612047565b60206040518083038186803b15801561154757600080fd5b505afa15801561155b573d6000803e3d6000fd5b505050506040513d601f19601f8201168201806040525081019061157f9190611f9e565b9392505050565b7f000000000000000000000000000000000000000000000000000000000000000081565b7f000000000000000000000000000000000000000000000000000000000000000081565b80428110156115ef5760405162461bcd60e51b81526004016103e9906124ff565b3361160c5760405162461bcd60e51b81526004016103e990612327565b6040516305df823d60e51b81526000906001600160a01b0386169063bbf047a09061163d9033908890600401612047565b60206040518083038186803b15801561165557600080fd5b505afa158015611669573d6000803e3d6000fd5b505050506040513d601f19601f8201168201806040525081019061168d9190611fba565b90506000866001600160a01b0316633dcbe079893388866040518563ffffffff1660e01b81526004016116c39493929190612187565b602060405180830381600087803b1580156116dd57600080fd5b505af11580156116f1573d6000803e3d6000fd5b505050506040513d601f19601f820116820180604052508101906117159190611f7e565b9050806109ae5760405162461bcd60e51b81526004016103e99061243a565b6000807f00000000000000000000000000000000000000000000000000000000000000006001600160a01b0316633a2614b2336040518263ffffffff1660e01b81526004016117839190612033565b6040805180830381600087803b15801561179c57600080fd5b505af11580156117b0573d6000803e3d6000fd5b505050506040513d601f19601f820116820180604052508101906117d49190611c42565b90939092509050565b61110c846323b872dd60e01b8585856040516024016117fe9392919061212e565b60408051601f198184030181529190526020810180516001600160e01b03166001600160e01b031990931692909217909152611a03565b60008082116118565760405162461bcd60e51b81526004016103e99061235e565b6000611864836103de612720565b905061157f6103e882612700565b604051633831508d60e21b81526000906001600160a01b0384169063e0c54234906118a39087908690600401612047565b602060405180830381600087803b1580156118bd57600080fd5b505af11580156118d1573d6000803e3d6000fd5b505050506040513d601f19601f820116820180604052508101906118f59190611f7e565b90508061110c5760405162461bcd60e51b81526004016103e990612254565b8161192a6001600160a01b0382163330856117dd565b505050565b8261110c6001600160a01b03821684846119e4565b604051632ed1527560e01b81526000906001600160a01b03841690632ed15275906119739085906004016126f7565b602060405180830381600087803b15801561198d57600080fd5b505af11580156119a1573d6000803e3d6000fd5b505050506040513d601f19601f820116820180604052508101906119c59190611f7e565b90508061192a5760405162461bcd60e51b81526004016103e99061263d565b61192a8363a9059cbb60e01b84846040516024016117fe929190612047565b6000611a58826040518060400160405280602081526020017f5361666545524332303a206c6f772d6c6576656c2063616c6c206661696c6564815250856001600160a01b0316611a929092919063ffffffff16565b80519091501561192a5780806020019051810190611a769190611f7e565b61192a5760405162461bcd60e51b81526004016103e99061266c565b60606111b8848460008585611aa685611b3b565b611ac25760405162461bcd60e51b81526004016103e9906125cf565b600080866001600160a01b03168587604051611ade9190612017565b60006040518083038185875af1925050503d8060008114611b1b576040519150601f19603f3d011682016040523d82523d6000602084013e611b20565b606091505b5091509150611b30828286611b6c565b979650505050505050565b600080826001600160a01b0316803b806020016040519081016040528181526000908060200190933c511192915050565b60608315611b7b57508161157f565b825115611b8b5782518084602001fd5b8160405162461bcd60e51b81526004016103e991906121ea565b600082601f830112611bb5578081fd5b6040516040810181811067ffffffffffffffff82111715611be457634e487b7160e01b83526041600452602483fd5b8060405250808385604086011115611bfa578384fd5b835b6002811015611c1b578135835260209283019290910190600101611bfc565b509195945050505050565b600060208284031215611c37578081fd5b815161157f81612777565b60008060408385031215611c54578081fd5b8251611c5f81612777565b6020840151909250611c7081612777565b809150509250929050565b600080600080600060c08688031215611c92578081fd5b8535611c9d81612777565b94506020860135611cad81612777565b93506040860135611cbd81612777565b9250611ccc8760608801611ba5565b9497939650919460a0013592915050565b60008060008060008060c08789031215611cf5578081fd5b8635611d0081612777565b95506020870135611d1081612777565b94506040870135611d2081612777565b93506060870135611d3081612777565b9598949750929560808101359460a0909101359350915050565b60008060008060008060e08789031215611d62578182fd5b8635611d6d81612777565b95506020870135611d7d81612777565b94506040870135611d8d81612777565b935060608701359250611da38860808901611ba5565b915060c087013590509295509295509295565b600080600080600060a08688031215611dcd578081fd5b8535611dd881612777565b94506020860135611de881612777565b93506040860135611df881612777565b94979396509394606081013594506080013592915050565b6000806000806000806000610100888a031215611e2b578081fd5b8735611e3681612777565b96506020880135611e4681612777565b95506040880135611e5681612777565b94506060880135935060808801359250611e738960a08a01611ba5565b915060e0880135905092959891949750929550565b60008060008060808587031215611e9d578182fd5b8435611ea881612777565b93506020850135611eb881612777565b9250604085013591506060850135611ecf8161278f565b939692955090935050565b60008060008060808587031215611eef578182fd5b8435611efa81612777565b93506020850135611f0a81612777565b93969395505050506040820135916060013590565b60008060408385031215611f31578182fd5b8235611f3c81612777565b946020939093013593505050565b600080600060608486031215611f5e578081fd5b8335611f6981612777565b95602085013595506040909401359392505050565b600060208284031215611f8f578081fd5b8151801515811461157f578182fd5b600060208284031215611faf578081fd5b815161157f8161278f565b600060208284031215611fcb578081fd5b5051919050565b8060005b600281101561110c578151845260209384019390910190600101611fd6565b6008811061201357634e487b7160e01b600052602160045260246000fd5b9052565b6000825161202981846020870161274b565b9190910192915050565b6001600160a01b0391909116815260200190565b6001600160a01b03929092168252602082015260400190565b6001600160a01b0392831681529116602082015260400190565b6001600160a01b038781168252868116602083015285166040820152606081018490526080810183905260e08101611b3060a0830184611fd2565b6001600160a01b0387811682528681166020830152851660408201526060810184905260e081016120e96080830185611fd2565b8260c0830152979650505050505050565b6001600160a01b03958616815293851660208501529190931660408301526060820192909252608081019190915260a00190565b6001600160a01b039384168152919092166020820152604081019190915260600190565b6001600160a01b03858116825284166020820152604081018390526080810161217e6060830184611ff5565b95945050505050565b6001600160a01b0394851681529290931660208301526040820152606081019190915260800190565b6001600160a01b039390931683526020830191909152604082015260600190565b901515815260200190565b6020810161108d8284611ff5565b600060208252825180602084015261220981604085016020870161274b565b601f01601f19169190910160400192915050565b6020808252601e908201527f4250523a3a5f776974684472617753656c6c6572424e42206661696c65640000604082015260600190565b60208082526019908201527f4250523a3a5f776974684472617746656573206661696c656400000000000000604082015260600190565b6020808252601490820152731094148e8e93dc99195c881b9bdd08185919195960621b604082015260600190565b6020808252601b908201527f4250523a3a776974684472617746656573204e6f74206f776e65720000000000604082015260600190565b6020808252601d908201527f4250523a3a5f7769746844726177437573746f6d6572206661696c6564000000604082015260600190565b6020808252601e908201527f4250523a3a7769746844726177204164647272657373206973207a65726f0000604082015260600190565b6020808252601e908201527f416d6f756e744f75743a20494e53554646494349454e545f414d4f554e540000604082015260600190565b60208082526019908201527f4250523a3a436f756c64206e6f74207365742053746174757300000000000000604082015260600190565b6020808252601e908201527f4250523a3a4164647272657373207a65726f206e6f7420616c6c6f7765640000604082015260600190565b60208082526017908201527f4250523a204f6e6c7920666565546f20616c6c6f776564000000000000000000604082015260600190565b6020808252818101527f4250523a3a5f7769746844726177437573746f6d6572424e42206661696c6564604082015260600190565b6020808252602f908201527f4250523a3a6372656174654f72646572202d204e6f7420616c6c6f776564207460408201526e379039b2b732103cb7bab939b2b63360891b606082015260800190565b60208082526021908201527f4250523a3a4e6f7420616c6c6f77656420746f2073656e6420796f757273656c6040820152603360f91b606082015260800190565b6020808252601390820152721094148e8e995b9cdd5c994811561412549151606a1b604082015260600190565b60208082526010908201526f109414ce8e9b1bd8dac81313d0d2d15160821b604082015260600190565b6020808252601b908201527f4250523a3a5f776974684472617753656c6c6572206661696c65640000000000604082015260600190565b60208082526022908201527f4250523a3a776974684472617746656573204164647272657373206973207a65604082015261726f60f01b606082015260800190565b6020808252601d908201527f416464726573733a2063616c6c20746f206e6f6e2d636f6e7472616374000000604082015260600190565b6020808252601e908201527f4250523a3a4e6f7720616c6c6f7765642073656e6420796f757273656c660000604082015260600190565b6020808252601590820152742128291d1d2fbbb4ba34223930bba332b2b9a1272160591b604082015260600190565b6020808252602a908201527f5361666545524332303a204552433230206f7065726174696f6e20646964206e6040820152691bdd081cdd58d8d9595960b21b606082015260800190565b60208082526021908201527f4250523a3a4e6f7720616c6c6f77656420746f2073656e6420796f757273656c6040820152603360f91b606082015260800190565b90815260200190565b60008261271b57634e487b7160e01b81526012600452602481fd5b500490565b600081600019048311821515161561274657634e487b7160e01b81526011600452602481fd5b500290565b60005b8381101561276657818101518382015260200161274e565b8381111561110c5750506000910152565b6001600160a01b038116811461278c57600080fd5b50565b6008811061278c57600080fdfea264697066735822122094f7725363820a2d01bb55ba3e0ac7d22dd946e8ff226207472c0724562b673a64736f6c63430008000033",
  "linkReferences": {},
  "deployedLinkReferences": {}
}