{
  "_format": "hh-sol-artifact-1",
  "contractName": "PalindromeFactory",
  "sourceName": "src/contracts/PalindromeFactory.sol",
  "abi": [
    {
      "inputs": [
        {
          "internalType": "address",
          "name": "_feeTo",
          "type": "address"
        },
        {
          "internalType": "address",
          "name": "_WETH",
          "type": "address"
        }
      ],
      "stateMutability": "nonpayable",
      "type": "constructor"
    },
    {
      "anonymous": false,
      "inputs": [
        {
          "indexed": true,
          "internalType": "address",
          "name": "_paymentSystemOwner",
          "type": "address"
        },
        {
          "indexed": true,
          "internalType": "address",
          "name": "_paymentSystemUID",
          "type": "address"
        },
        {
          "indexed": false,
          "internalType": "address",
          "name": "orderBookUID",
          "type": "address"
        }
      ],
      "name": "OrderBookCreated",
      "type": "event"
    },
    {
      "anonymous": false,
      "inputs": [
        {
          "indexed": true,
          "internalType": "address",
          "name": "_paymentSystemOwner",
          "type": "address"
        },
        {
          "indexed": true,
          "internalType": "address",
          "name": "_paymentSystemUID",
          "type": "address"
        },
        {
          "indexed": false,
          "internalType": "uint256",
          "name": "",
          "type": "uint256"
        }
      ],
      "name": "PaymentSystemCreated",
      "type": "event"
    },
    {
      "inputs": [],
      "name": "WETH",
      "outputs": [
        {
          "internalType": "address",
          "name": "",
          "type": "address"
        }
      ],
      "stateMutability": "view",
      "type": "function"
    },
    {
      "inputs": [],
      "name": "countMerchants",
      "outputs": [
        {
          "internalType": "uint256",
          "name": "",
          "type": "uint256"
        }
      ],
      "stateMutability": "view",
      "type": "function"
    },
    {
      "inputs": [
        {
          "internalType": "address",
          "name": "paymentSystemOwner",
          "type": "address"
        }
      ],
      "name": "createPaymentSystem",
      "outputs": [
        {
          "internalType": "address",
          "name": "paymentSystemUID",
          "type": "address"
        },
        {
          "internalType": "address",
          "name": "orderBookUID",
          "type": "address"
        }
      ],
      "stateMutability": "nonpayable",
      "type": "function"
    },
    {
      "inputs": [],
      "name": "feeTo",
      "outputs": [
        {
          "internalType": "address",
          "name": "",
          "type": "address"
        }
      ],
      "stateMutability": "view",
      "type": "function"
    },
    {
      "inputs": [],
      "name": "feeToSetter",
      "outputs": [
        {
          "internalType": "address",
          "name": "",
          "type": "address"
        }
      ],
      "stateMutability": "view",
      "type": "function"
    },
    {
      "inputs": [
        {
          "internalType": "address",
          "name": "",
          "type": "address"
        }
      ],
      "name": "getOrderBook",
      "outputs": [
        {
          "internalType": "address",
          "name": "",
          "type": "address"
        }
      ],
      "stateMutability": "view",
      "type": "function"
    },
    {
      "inputs": [],
      "name": "getPaymentDetails",
      "outputs": [
        {
          "internalType": "address",
          "name": "paymentSystemUID",
          "type": "address"
        },
        {
          "internalType": "address",
          "name": "orderBookUID",
          "type": "address"
        }
      ],
      "stateMutability": "view",
      "type": "function"
    },
    {
      "inputs": [
        {
          "internalType": "address",
          "name": "",
          "type": "address"
        },
        {
          "internalType": "uint256",
          "name": "",
          "type": "uint256"
        }
      ],
      "name": "getPaymentSystem",
      "outputs": [
        {
          "internalType": "address",
          "name": "",
          "type": "address"
        }
      ],
      "stateMutability": "view",
      "type": "function"
    },
    {
      "inputs": [],
      "name": "initCodeHashMerchant",
      "outputs": [
        {
          "internalType": "bytes32",
          "name": "",
          "type": "bytes32"
        }
      ],
      "stateMutability": "view",
      "type": "function"
    },
    {
      "inputs": [],
      "name": "initCodeHashOrderBook",
      "outputs": [
        {
          "internalType": "bytes32",
          "name": "",
          "type": "bytes32"
        }
      ],
      "stateMutability": "view",
      "type": "function"
    },
    {
      "inputs": [],
      "name": "mediator",
      "outputs": [
        {
          "internalType": "address",
          "name": "",
          "type": "address"
        }
      ],
      "stateMutability": "view",
      "type": "function"
    },
    {
      "inputs": [
        {
          "internalType": "address",
          "name": "_feeTo",
          "type": "address"
        }
      ],
      "name": "setFeeTo",
      "outputs": [],
      "stateMutability": "nonpayable",
      "type": "function"
    },
    {
      "inputs": [
        {
          "internalType": "address",
          "name": "_feeToSetter",
          "type": "address"
        }
      ],
      "name": "setFeeToSetter",
      "outputs": [],
      "stateMutability": "nonpayable",
      "type": "function"
    },
    {
      "inputs": [
        {
          "internalType": "address",
          "name": "_mediator",
          "type": "address"
        }
      ],
      "name": "setMediator",
      "outputs": [],
      "stateMutability": "nonpayable",
      "type": "function"
    }
  ],
  "bytecode": "0x60a06040526297e95e600355600060065534801561001c57600080fd5b50604051615e43380380615e4383398101604081905261003b916100a4565b600080546001600160a01b039093166001600160a01b03199384161790556001600160601b031960609190911b1660805260018054821633908117909155600280549092161790556100d6565b80516001600160a01b038116811461009f57600080fd5b919050565b600080604083850312156100b6578182fd5b6100bf83610088565b91506100cd60208401610088565b90509250929050565b60805160601c615d486100fb600039600081816104ab01526106790152615d486000f3fe608060405234801561001057600080fd5b50600436106100ea5760003560e01c8063a5ff1c4f1161008c578063adaae60011610066578063adaae6001461019e578063b1c94183146101a6578063c92ae959146101b9578063f46901ed146101c1576100ea565b8063a5ff1c4f1461017b578063a9a3855814610183578063ad5c464814610196576100ea565b806349e3ec5e116100c857806349e3ec5e146101365780636d0501f61461014b57806380b43a2b14610153578063a2e74af614610168576100ea565b8063017e7e58146100ef578063094b74151461010d5780633a2614b214610115575b600080fd5b6100f76101d4565b60405161010491906108b3565b60405180910390f35b6100f76101e3565b6101286101233660046107e7565b6101f2565b6040516101049291906108c7565b6101496101443660046107e7565b610399565b005b6100f76103e3565b61015b6103f2565b604051610104919061091b565b6101496101763660046107e7565b6103f8565b61015b610444565b6100f76101913660046107e7565b61048e565b6100f76104a9565b61015b6104cd565b6100f76101b4366004610808565b6104dc565b610128610502565b6101496101cf3660046107e7565b610576565b6000546001600160a01b031681565b6002546001600160a01b031681565b600080600060405180602001610207906107b1565b6020820181038252601f19601f820116604052509050600084600354604051602001610234929190610858565b604051602081830303815290604052805190602001209050808251602084016000f593506001600160a01b0384161580159061028857506001600160a01b0385811660009081526005602052604090205416155b6102ad5760405162461bcd60e51b81526004016102a490610992565b60405180910390fd5b6001600160a01b0385811660009081526004602090815260408083206003548452909152812080546001600160a01b0319169287169290921790915560068054600192906102fc908490610a6c565b90915550506001600160a01b0385811660009081526005602052604090205416156103395760405162461bcd60e51b81526004016102a490610924565b61034385856105c2565b9250836001600160a01b0316856001600160a01b03167f7198e746ad13d7f7ad7996588822acf1be3e94fa4568bac97ba1a9f45901775560065460405161038a919061091b565b60405180910390a35050915091565b336001600160a01b038216146103c15760405162461bcd60e51b81526004016102a490610a35565b600180546001600160a01b0319166001600160a01b0392909216919091179055565b6001546001600160a01b031681565b60065481565b6002546001600160a01b031633146104225760405162461bcd60e51b81526004016102a49061095b565b600280546001600160a01b0319166001600160a01b0392909216919091179055565b604051610453602082016107be565b601f1982820381018352601f909101166040819052610475919060200161087a565b6040516020818303038152906040528051906020012081565b6005602052600090815260409020546001600160a01b031681565b7f000000000000000000000000000000000000000000000000000000000000000081565b604051610453602082016107b1565b60046020908152600092835260408084209091529082529020546001600160a01b031681565b336000908152600460209081526040808320600354845290915281205481906001600160a01b03161561056b575050336000818152600460209081526040808320600354845282528083205493835260059091529020546001600160a01b039182169116610572565b5060009050805b9091565b6002546001600160a01b031633146105a05760405162461bcd60e51b81526004016102a4906109c9565b600080546001600160a01b0319166001600160a01b0392909216919091179055565b60006001600160a01b0383166105ea5760405162461bcd60e51b81526004016102a490610a00565b6000604051806020016105fc906107be565b6020820181038252601f19601f82011660405250905060008484604051602001610627929190610831565b604051602081830303815290604052805190602001209050808251602084016000f560015460005460405163812aacc160e01b81529295506001600160a01b038088169363812aacc1936106ab938a937f0000000000000000000000000000000000000000000000000000000000000000938b9333939083169216906004016108e1565b600060405180830381600087803b1580156106c557600080fd5b505af11580156106d9573d6000803e3d6000fd5b50506001546040516318e0705b60e31b81526001600160a01b03808816945063c70382d893506107109289929116906004016108c7565b600060405180830381600087803b15801561072a57600080fd5b505af115801561073e573d6000803e3d6000fd5b505050506001600160a01b038581166000818152600560205260409081902080546001600160a01b03191687851617905551918616917f8e7d3fb83a8f7b39ba3bf11c2b3d9d2513387b1a1aac4314e1280d0b15030ef2906107a19087906108b3565b60405180910390a3505092915050565b612e4b80610a9183390190565b612437806138dc83390190565b80356001600160a01b03811681146107e257600080fd5b919050565b6000602082840312156107f8578081fd5b610801826107cb565b9392505050565b6000806040838503121561081a578081fd5b610823836107cb565b946020939093013593505050565b6bffffffffffffffffffffffff19606093841b811682529190921b16601482015260280190565b60609290921b6bffffffffffffffffffffffff19168252601482015260340190565b60008251815b8181101561089a5760208186018101518583015201610880565b818111156108a85782828501525b509190910192915050565b6001600160a01b0391909116815260200190565b6001600160a01b0392831681529116602082015260400190565b6001600160a01b0396871681529486166020860152928516604085015290841660608401528316608083015290911660a082015260c00190565b90815260200190565b6020808252601e908201527f4250463a3a4f72646572426f6f6b20616c726561647920657869737473210000604082015260600190565b6020808252601d908201527f4250463a3a736574466565546f53657474657220464f5242494444454e000000604082015260600190565b6020808252601a908201527f4250463a3a4f7264657220616c72656164792065786973747321000000000000604082015260600190565b60208082526017908201527f4250463a3a736574466565546f20464f5242494444454e000000000000000000604082015260600190565b6020808252818101527f4250463a3a6372656174654d65726368616e74205a45524f5f41444452455353604082015260600190565b6020808252601a908201527f4250463a3a7365744d65646961746f7220464f5242494444454e000000000000604082015260600190565b60008219821115610a8b57634e487b7160e01b81526011600452602481fd5b50019056fe60a0604052600a805460ff60a01b1916600160a01b1790556001600b5534801561002857600080fd5b50604080518082018252601281527150616c696e64726f6d656d656e74204c507360701b6020918201528151808301835260018152603160f81b90820152905146916100de917f8b73c3c69bb8fe3d512ecc4cf759cc79239f7b179b0ffacaa9a75d522b39400f917f09823d951ff67ff11054dc33cf8ded766450dcdce3af83717468f57c76a5c61d917fc89efdaa54c0f20c7adf612882df0950f5a951637e0307cdcb4c672f298b8bc6918691309101610106565b60408051601f198184030181529190528051602090910120600355503360601b608052610132565b9485526020850193909352604084019190915260608301526001600160a01b0316608082015260a00190565b60805160601c612cf3620001586000396000818161152e01526117570152612cf36000f3fe6080604052600436106101c65760003560e01c80636370f94c116100f757806395d89b4111610095578063d505accf11610064578063d505accf146104d5578063d6b264a6146104f5578063dd62ed3e1461050a578063e0c542341461052a576101f5565b806395d89b4114610476578063a9059cbb1461048b578063ad5c4648146104ab578063c45a0155146104c0576101f5565b806370a08231116100d157806370a08231146104015780637ecebe0014610421578063812aacc11461044157806383ef916e14610461576101f5565b80636370f94c146103ac5780636d0501f6146103cc5780637083a082146103e1576101f5565b80632ed15275116101645780633644e5151161013e5780633644e515146103375780633782dbef1461034c5780633dcbe0791461036c57806343e1e9e31461038c576101f5565b80632ed15275146102e057806330adf81f14610300578063313ce56714610315576101f5565b806318160ddd116101a057806318160ddd146102745780631cd4a3fa1461029657806323b872dd146102ab5780632cfc6518146102cb576101f5565b8063017e7e58146101fa57806306fdde0314610225578063095ea7b314610247576101f5565b366101f5576007546001600160a01b031633146101f357634e487b7160e01b600052600160045260246000fd5b005b600080fd5b34801561020657600080fd5b5061020f61054a565b60405161021c9190612399565b60405180910390f35b34801561023157600080fd5b5061023a610559565b60405161021c91906124c8565b34801561025357600080fd5b506102676102623660046121fb565b610587565b60405161021c9190612462565b34801561028057600080fd5b5061028961059d565b60405161021c919061246d565b3480156102a257600080fd5b5061020f6105a3565b3480156102b757600080fd5b506102676102c6366004612101565b6105b2565b3480156102d757600080fd5b5061020f610648565b3480156102ec57600080fd5b506102676102fb366004612328565b610657565b34801561030c57600080fd5b50610289610724565b34801561032157600080fd5b5061032a610748565b60405161021c9190612b73565b34801561034357600080fd5b5061028961074d565b34801561035857600080fd5b50610267610367366004611ff6565b610753565b34801561037857600080fd5b50610267610387366004612141565b610986565b34801561039857600080fd5b506101f36103a7366004612050565b610c0e565b3480156103b857600080fd5b506102676103c7366004612141565b610e1c565b3480156103d857600080fd5b5061020f61115d565b3480156103ed57600080fd5b506102676103fc366004612226565b61116c565b34801561040d57600080fd5b5061028961041c366004611f05565b6114ff565b34801561042d57600080fd5b5061028961043c366004611f05565b611511565b34801561044d57600080fd5b506101f361045c366004611f75565b611523565b34801561046d57600080fd5b506102676116fc565b34801561048257600080fd5b5061023a61170c565b34801561049757600080fd5b506102676104a63660046121fb565b611739565b3480156104b757600080fd5b5061020f611746565b3480156104cc57600080fd5b5061020f611755565b3480156104e157600080fd5b506101f36104f0366004612186565b611779565b34801561050157600080fd5b5061020f6118f4565b34801561051657600080fd5b50610289610525366004611f3d565b611903565b34801561053657600080fd5b506102676105453660046121fb565b611920565b600a546001600160a01b031681565b6040518060400160405280601281526020017150616c696e64726f6d656d656e74204c507360701b81525081565b600061059433848461198b565b50600192915050565b60005481565b6005546001600160a01b031681565b6001600160a01b038316600090815260026020908152604080832033845290915281205460001914610632576001600160a01b038416600090815260026020908152604080832033845290915290205461060d908390612c10565b6001600160a01b03851660009081526002602090815260408083203384529091529020555b61063d8484846119f3565b5060015b9392505050565b6008546001600160a01b031681565b6000600b546001146106845760405162461bcd60e51b815260040161067b90612a20565b60405180910390fd5b6000600b55600a5461069f906001600160a01b031683611a99565b600754604051632e1a7d4d60e01b81526001600160a01b0390911690632e1a7d4d906106cf90859060040161246d565b600060405180830381600087803b1580156106e957600080fd5b505af11580156106fd573d6000803e3d6000fd5b5050600a5461071892506001600160a01b0316905083611b31565b50600180600b55919050565b7f6e71edae12b1b97f4d1f60370fef10105fa2faae0126114a169c64845d6126c981565b601281565b60035481565b6000600b546001146107775760405162461bcd60e51b815260040161067b90612a20565b6000600b8190556008546040516332c13e1960e01b81528892916001600160a01b0316906332c13e19906107b1908a908990600401612425565b6101606040518083038186803b1580156107ca57600080fd5b505afa1580156107de573d6000803e3d6000fd5b505050506040513d601f19601f82011682018060405250810190610802919061227a565b9050866001600160a01b031681604001516001600160a01b0316146108395760405162461bcd60e51b815260040161067b90612569565b60068160800151600781111561085f57634e487b7160e01b600052602160045260246000fd5b1461087c5760405162461bcd60e51b815260040161067b90612772565b6108868685611a99565b84866001600160a01b0316600080516020612c9e833981519152866040516108ae919061246d565b60405180910390a36008546040516338a6e4cd60e01b81526000916001600160a01b0316906338a6e4cd906108ec908b908a9060039060040161243e565b602060405180830381600087803b15801561090657600080fd5b505af115801561091a573d6000803e3d6000fd5b505050506040513d601f19601f8201168201806040525081019061093e919061225a565b90508061095d5760405162461bcd60e51b815260040161067b90612532565b6109716001600160a01b0384168987611bc3565b600193505050506001600b5595945050505050565b6000600b546001146109aa5760405162461bcd60e51b815260040161067b90612a20565b6000600b8190556008546040516332c13e1960e01b81526001600160a01b03909116906332c13e19906109e39088908890600401612425565b6101606040518083038186803b1580156109fc57600080fd5b505afa158015610a10573d6000803e3d6000fd5b505050506040513d601f19601f82011682018060405250810190610a34919061227a565b9050846001600160a01b031681604001516001600160a01b031614610a6b5760405162461bcd60e51b815260040161067b90612569565b600681608001516007811115610a9157634e487b7160e01b600052602160045260246000fd5b14610aae5760405162461bcd60e51b815260040161067b906125a0565b610ab88684611a99565b83866001600160a01b0316600080516020612c9e83398151915285604051610ae0919061246d565b60405180910390a36008546040516338a6e4cd60e01b81526000916001600160a01b0316906338a6e4cd90610b1e908990899060039060040161243e565b602060405180830381600087803b158015610b3857600080fd5b505af1158015610b4c573d6000803e3d6000fd5b505050506040513d601f19601f82011682018060405250810190610b70919061225a565b905080610b8f5760405162461bcd60e51b815260040161067b906125ea565b600754604051632e1a7d4d60e01b81526001600160a01b0390911690632e1a7d4d90610bbf90879060040161246d565b600060405180830381600087803b158015610bd957600080fd5b505af1158015610bed573d6000803e3d6000fd5b50505050610bfb8685611b31565b6001925050506001600b55949350505050565b600b54600114610c305760405162461bcd60e51b815260040161067b90612a20565b6000600b819055600854604051630a6db90d60e41b81526001600160a01b039091169063a6db90d090610c699089908790600401612425565b60206040518083038186803b158015610c8157600080fd5b505afa158015610c95573d6000803e3d6000fd5b505050506040513d601f19601f82011682018060405250810190610cb99190611f21565b9050806001600160a01b0316876001600160a01b031614610cec5760405162461bcd60e51b815260040161067b90612b44565b6000610cf785611c19565b90506000610d058287612c10565b9050610d118783611c5f565b84876001600160a01b03167f4c209b5fc8ad50758f13e2e1088ba56a560dff690a1c6fef26394f4c03821c4f84604051610d4b919061246d565b60405180910390a3610d5c81611ce2565b60085460405163e3d1f8cb60e01b81526000916001600160a01b03169063e3d1f8cb90610d9a908d908c908e908d908d908d906001906004016123ad565b602060405180830381600087803b158015610db457600080fd5b505af1158015610dc8573d6000803e3d6000fd5b505050506040513d601f19601f82011682018060405250810190610dec919061225a565b905080610e0b5760405162461bcd60e51b815260040161067b906129a4565b50506001600b555050505050505050565b6000600b54600114610e405760405162461bcd60e51b815260040161067b90612a20565b6000600b8190556008546040516332c13e1960e01b81528692869290916001600160a01b03909116906332c13e1990610e7f9086908690600401612425565b6101606040518083038186803b158015610e9857600080fd5b505afa158015610eac573d6000803e3d6000fd5b505050506040513d601f19601f82011682018060405250810190610ed0919061227a565b9050826001600160a01b031681602001516001600160a01b031614610f075760405162461bcd60e51b815260040161067b90612704565b6008546040516332c13e1960e01b815289916000916001600160a01b03909116906332c13e1990610f3e908c908c90600401612425565b6101606040518083038186803b158015610f5757600080fd5b505afa158015610f6b573d6000803e3d6000fd5b505050506040513d601f19601f82011682018060405250810190610f8f919061227a565b9050600181608001516007811115610fb757634e487b7160e01b600052602160045260246000fd5b148015610fd957508061010001514210158015610fd957504281610120015111155b80611007575060028160800151600781111561100557634e487b7160e01b600052602160045260246000fd5b145b80611035575060078160800151600781111561103357634e487b7160e01b600052602160045260246000fd5b145b6110515760405162461bcd60e51b815260040161067b906127b5565b61105b8988611a99565b87896001600160a01b0316600080516020612c9e83398151915289604051611083919061246d565b60405180910390a36008546040516338a6e4cd60e01b81526000916001600160a01b0316906338a6e4cd906110c1908d908d9060039060040161243e565b602060405180830381600087803b1580156110db57600080fd5b505af11580156110ef573d6000803e3d6000fd5b505050506040513d601f19601f82011682018060405250810190611113919061225a565b9050806111325760405162461bcd60e51b815260040161067b906128ed565b6111466001600160a01b0384168b8a611bc3565b6001965050505050506001600b5550949350505050565b6009546001600160a01b031681565b6008546040516332c13e1960e01b81526000918591859184916001600160a01b03909116906332c13e19906111a79086908690600401612425565b6101606040518083038186803b1580156111c057600080fd5b505afa1580156111d4573d6000803e3d6000fd5b505050506040513d601f19601f820116820180604052508101906111f8919061227a565b9050826001600160a01b031681602001516001600160a01b03161461122f5760405162461bcd60e51b815260040161067b90612704565b600b546001146112515760405162461bcd60e51b815260040161067b90612a20565b6000600b8190556008546040516332c13e1960e01b81526001600160a01b03909116906332c13e199061128a908b908b90600401612425565b6101606040518083038186803b1580156112a357600080fd5b505afa1580156112b7573d6000803e3d6000fd5b505050506040513d601f19601f820116820180604052508101906112db919061227a565b905060018160800151600781111561130357634e487b7160e01b600052602160045260246000fd5b1480156113255750806101000151421015801561132557504281610120015111155b80611353575060028160800151600781111561135157634e487b7160e01b600052602160045260246000fd5b145b80611381575060078160800151600781111561137f57634e487b7160e01b600052602160045260246000fd5b145b61139d5760405162461bcd60e51b815260040161067b90612954565b6113a78887611a99565b86886001600160a01b0316600080516020612c9e833981519152886040516113cf919061246d565b60405180910390a36008546040516338a6e4cd60e01b81526000916001600160a01b0316906338a6e4cd9061140d908c908c9060039060040161243e565b602060405180830381600087803b15801561142757600080fd5b505af115801561143b573d6000803e3d6000fd5b505050506040513d601f19601f8201168201806040525081019061145f919061225a565b90508061147e5760405162461bcd60e51b815260040161067b9061273b565b600754604051632e1a7d4d60e01b81526001600160a01b0390911690632e1a7d4d906114ae908a9060040161246d565b600060405180830381600087803b1580156114c857600080fd5b505af11580156114dc573d6000803e3d6000fd5b505050506114ea8988611b31565b60019550505050506001600b55509392505050565b60016020526000908152604090205481565b60046020526000908152604090205481565b336001600160a01b037f0000000000000000000000000000000000000000000000000000000000000000161461156b5760405162461bcd60e51b815260040161067b90612650565b6001600160a01b0386166115915760405162461bcd60e51b815260040161067b90612b01565b6001600160a01b0385166115b75760405162461bcd60e51b815260040161067b90612687565b6001600160a01b0384166115dd5760405162461bcd60e51b815260040161067b906128b6565b6001600160a01b0382166116035760405162461bcd60e51b815260040161067b906129db565b6001600160a01b0381166116295760405162461bcd60e51b815260040161067b9061291d565b6001600160a01b03831661164f5760405162461bcd60e51b815260040161067b90612839565b600680546001600160a01b03199081166001600160a01b038981169190911790925560078054821688841617905560088054821687841617908190556009805483168785161790556005805483168685161790819055600a8054909316858516179092556040519083169230927fa4d2201137159ee76f2b07b68f91cdc2496df5a30c9552bd2781ebc5a06610cb926116ec929190911690612399565b60405180910390a3505050505050565b600a54600160a01b900460ff1681565b60405180604001604052806011815260200170050616c696e64726f6d656d656e742d4c5607c1b81525081565b60006105943384846119f3565b6007546001600160a01b031681565b7f000000000000000000000000000000000000000000000000000000000000000081565b428410156117995760405162461bcd60e51b815260040161067b90612621565b6003546001600160a01b038816600090815260046020526040812080549192917f6e71edae12b1b97f4d1f60370fef10105fa2faae0126114a169c64845d6126c9918b918b918b9190876117ec83612c57565b919050558a60405160200161180696959493929190612476565b6040516020818303038152906040528051906020012060405160200161182d92919061237e565b60405160208183030381529060405280519060200120905060006001828686866040516000815260200160405260405161186a94939291906124aa565b6020604051602081039080840390855afa15801561188c573d6000803e3d6000fd5b5050604051601f1901519150506001600160a01b038116158015906118c25750886001600160a01b0316816001600160a01b0316145b6118de5760405162461bcd60e51b815260040161067b906124fb565b6118e989898961198b565b505050505050505050565b6006546001600160a01b031681565b600260209081526000928352604080842090915290825290205481565b6000600b546001146119445760405162461bcd60e51b815260040161067b90612a20565b6000600b55600a5461195f906001600160a01b031683611a99565b600a54839061197b906001600160a01b03808416911685611bc3565b60019150506001600b5592915050565b6001600160a01b0380841660008181526002602090815260408083209487168084529490915290819020849055517f8c5be1e5ebec7d5bd14f71427d1e84f3dd0314c0f7b2291e5b200ac8c7c3b925906119e690859061246d565b60405180910390a3505050565b6001600160a01b038316600090815260016020526040902054611a17908290612c10565b6001600160a01b038085166000908152600160205260408082209390935590841681522054611a47908290612bb9565b6001600160a01b0380841660008181526001602052604090819020939093559151908516907fddf252ad1be2c89b69c2b068fc378daa952ba7f163c4a11628f55a4df523b3ef906119e690859061246d565b6001600160a01b038216600090815260016020526040902054611abd908290612c10565b6001600160a01b03831660009081526001602052604081209190915554611ae5908290612c10565b60009081556040516001600160a01b038416907fddf252ad1be2c89b69c2b068fc378daa952ba7f163c4a11628f55a4df523b3ef90611b2590859061246d565b60405180910390a35050565b604080516000808252602082019092526001600160a01b038416908390604051611b5b9190612362565b60006040518083038185875af1925050503d8060008114611b98576040519150601f19603f3d011682016040523d82523d6000602084013e611b9d565b606091505b5050905080611bbe5760405162461bcd60e51b815260040161067b90612870565b505050565b611bbe8363a9059cbb60e01b8484604051602401611be2929190612425565b60408051601f198184030181529190526020810180516001600160e01b03166001600160e01b031990931692909217909152611d1b565b6000808211611c3a5760405162461bcd60e51b815260040161067b90612802565b6000611c48836103de612bf1565b9050611c566103e882612bd1565b9150505b919050565b80600054611c6d9190612bb9565b60009081556001600160a01b038316815260016020526040902054611c93908290612bb9565b6001600160a01b0383166000818152600160205260408082209390935591519091907fddf252ad1be2c89b69c2b068fc378daa952ba7f163c4a11628f55a4df523b3ef90611b2590859061246d565b60008111611d025760405162461bcd60e51b815260040161067b90612a80565b600a54611d18906001600160a01b031682611c5f565b50565b6000611d70826040518060400160405280602081526020017f5361666545524332303a206c6f772d6c6576656c2063616c6c206661696c6564815250856001600160a01b0316611daa9092919063ffffffff16565b805190915015611bbe5780806020019051810190611d8e919061225a565b611bbe5760405162461bcd60e51b815260040161067b90612ab7565b6060611db98484600085611dc1565b949350505050565b606082471015611de35760405162461bcd60e51b815260040161067b906126be565b611dec85611e81565b611e085760405162461bcd60e51b815260040161067b90612a49565b600080866001600160a01b03168587604051611e249190612362565b60006040518083038185875af1925050503d8060008114611e61576040519150601f19603f3d011682016040523d82523d6000602084013e611e66565b606091505b5091509150611e76828286611eb2565b979650505050505050565b600080826001600160a01b0316803b806020016040519081016040528181526000908060200190933c511192915050565b60608315611ec1575081610641565b825115611ed15782518084602001fd5b8160405162461bcd60e51b815260040161067b91906124c8565b8051611c5a81612c88565b805160088110611c5a57600080fd5b600060208284031215611f16578081fd5b813561064181612c88565b600060208284031215611f32578081fd5b815161064181612c88565b60008060408385031215611f4f578081fd5b8235611f5a81612c88565b91506020830135611f6a81612c88565b809150509250929050565b60008060008060008060c08789031215611f8d578182fd5b8635611f9881612c88565b95506020870135611fa881612c88565b94506040870135611fb881612c88565b93506060870135611fc881612c88565b92506080870135611fd881612c88565b915060a0870135611fe881612c88565b809150509295509295509295565b600080600080600060a0868803121561200d578081fd5b853561201881612c88565b9450602086013561202881612c88565b9350604086013561203881612c88565b94979396509394606081013594506080013592915050565b60008060008060008060e08789031215612068578182fd5b863561207381612c88565b955060208781013561208481612c88565b9550604088013561209481612c88565b9450606088013593506080880135925060bf880189136120b2578182fd5b6120bc6040612b81565b8060a08a018b60e08c0111156120d0578485fd5b845b60028110156120ef578135845292840192908401906001016120d2565b50508093505050509295509295509295565b600080600060608486031215612115578283fd5b833561212081612c88565b9250602084013561213081612c88565b929592945050506040919091013590565b60008060008060808587031215612156578182fd5b843561216181612c88565b9350602085013561217181612c88565b93969395505050506040820135916060013590565b600080600080600080600060e0888a0312156121a0578485fd5b87356121ab81612c88565b965060208801356121bb81612c88565b95506040880135945060608801359350608088013560ff811681146121de578182fd5b9699959850939692959460a0840135945060c09093013592915050565b6000806040838503121561220d578182fd5b823561221881612c88565b946020939093013593505050565b60008060006060848603121561223a578081fd5b833561224581612c88565b95602085013595506040909401359392505050565b60006020828403121561226b578081fd5b81518015158114610641578182fd5b600061016080838503121561228d578182fd5b61229681612b81565b90506122a183611eeb565b81526122af60208401611eeb565b60208201526122c060408401611eeb565b6040820152606083015160608201526122db60808401611ef6565b608082015260a0838101519082015260c0808401519082015260e0808401519082015261010080840151908201526101208084015190820152610140928301519281019290925250919050565b600060208284031215612339578081fd5b5035919050565b6008811061235e57634e487b7160e01b600052602160045260246000fd5b9052565b60008251612374818460208701612c27565b9190910192915050565b61190160f01b81526002810192909252602282015260420190565b6001600160a01b0391909116815260200190565b6001600160a01b0388811682528781166020808401919091529087166040830152606082018690526080820185905261010082019060a08301908560005b6002811015612408578151845292820192908201906001016123eb565b5050505061241960e0830184612340565b98975050505050505050565b6001600160a01b03929092168252602082015260400190565b6001600160a01b03841681526020810183905260608101611db96040830184612340565b901515815260200190565b90815260200190565b9586526001600160a01b0394851660208701529290931660408501526060840152608083019190915260a082015260c00190565b93845260ff9290921660208401526040830152606082015260800190565b60006020825282518060208401526124e7816040850160208701612c27565b601f01601f19169190910160400192915050565b6020808252601f908201527f50616c696e64726f6d6556323a20494e56414c49445f5349474e415455524500604082015260600190565b60208082526018908201527f4250533a3a6275726e437573746f6d6572206661696c65640000000000000000604082015260600190565b6020808252601a908201527f4250533a3a4f6e6c7920437573746f6d657220616c6c6f776564000000000000604082015260600190565b6020808252602a908201527f4250533a3a6275726e437573746f6d6572424e42202d204e6f742065787065636040820152697465642073746174757360b01b606082015260800190565b6020808252601b908201527f4250533a3a6275726e437573746f6d6572424e42206661696c65640000000000604082015260600190565b60208082526015908201527414185b1a5b991c9bdb59558c8e8811561412549151605a1b604082015260600190565b60208082526019908201527f4250533a3a696e697469616c697a6520464f5242494444454e00000000000000604082015260600190565b60208082526017908201527f4250533a3a5f5745544820616464726573732069732030000000000000000000604082015260600190565b60208082526026908201527f416464726573733a20696e73756666696369656e742062616c616e636520666f6040820152651c8818d85b1b60d21b606082015260800190565b60208082526018908201527f4250533a3a4f6e6c792053656c6c657220616c6c6f7765640000000000000000604082015260600190565b60208082526019908201527f4250533a3a6275726e53656c6c6572424e42206661696c656400000000000000604082015260600190565b60208082526023908201527f4250533a3a4f726465725374617465204e6f742065787065637465642073746160408201526274757360e81b606082015260800190565b6020808252602d908201527f4250533a3a6275726e53656c6c6572202d204e6f74206578706563746564207360408201526c7461747573206f722074696d6560981b606082015260800190565b6020808252601e908201527f416d6f756e744f75743a20494e53554646494349454e545f414d4f554e540000604082015260600190565b6020808252601b908201527f4250533a3a5f6d65646961746f72206164647265737320697320300000000000604082015260600190565b60208082526026908201527f5472616e7366657248656c7065723a3a736166655472616e736665724554482060408201526519985a5b195960d21b606082015260800190565b6020808252601b908201527f4250533a3a5f6f72646572554944206164647265737320697320300000000000604082015260600190565b602080825260169082015275109414ce8e989d5c9b94d95b1b195c8819985a5b195960521b604082015260600190565b60208082526018908201527f4250533a3a5f666565546f206164647265737320697320300000000000000000604082015260600190565b60208082526030908201527f4250533a3a6275726e53656c6c6572424e42202d204e6f74206578706563746560408201526f6420737461747573206f722074696d6560801b606082015260800190565b60208082526017908201527f4250533a3a7570646174654f72646572206661696c6564000000000000000000604082015260600190565b60208082526025908201527f4250533a3a5f7061796d656e7453797374656d4f776e65722061646472657373604082015264020697320360dc1b606082015260800190565b6020808252600f908201526e109414ce9b1bd8dac81313d0d2d151608a1b604082015260600190565b6020808252601d908201527f416464726573733a2063616c6c20746f206e6f6e2d636f6e7472616374000000604082015260600190565b6020808252601c908201527f4250533a3a6d696e744665652046454520414d4f554e54204953203000000000604082015260600190565b6020808252602a908201527f5361666545524332303a204552433230206f7065726174696f6e20646964206e6040820152691bdd081cdd58d8d9595960b21b606082015260800190565b60208082526023908201527f4250533a3a5f7061796d656e7453797374656d5549442061646472657373206960408201526207320360ec1b606082015260800190565b6020808252601590820152742128299d1d36b4b73a103bb937b733903a37b5b2b760591b604082015260600190565b60ff91909116815260200190565b60405181810167ffffffffffffffff81118282101715612bb157634e487b7160e01b600052604160045260246000fd5b604052919050565b60008219821115612bcc57612bcc612c72565b500190565b600082612bec57634e487b7160e01b81526012600452602481fd5b500490565b6000816000190483118215151615612c0b57612c0b612c72565b500290565b600082821015612c2257612c22612c72565b500390565b60005b83811015612c42578181015183820152602001612c2a565b83811115612c51576000848401525b50505050565b6000600019821415612c6b57612c6b612c72565b5060010190565b634e487b7160e01b600052601160045260246000fd5b6001600160a01b0381168114611d1857600080fdfe49995e5dd6158cf69ad3e9777c46755a1a826a446c6416992167462dad033b2aa26469706673582212200032d4ad1ab4cd6a9066c2e97f65c68b8bf108ce39b8f15623c4c17f395de75564736f6c6343000800003360a0604052603c6002556000600355600160045534801561001f57600080fd5b5033606081901b6080526123ef610048600039600081816111ff015261122c01526123ef6000f3fe608060405234801561001057600080fd5b50600436106101215760003560e01c8063a80a3baa116100ad578063c45a015511610071578063c45a01551461025b578063c70382d814610263578063d6b264a614610276578063e3d1f8cb1461027e578063edb258411461029157610121565b8063a80a3baa146101f6578063ad254f4214610216578063b4ffafa71461022b578063b99d53b714610233578063bbf047a01461024857610121565b80636d0501f6116100f45780636d0501f6146101955780637046fe21146101aa57806385e1cd99146101bd5780638a274da0146101d0578063a6db90d0146101e357610121565b806332c13e191461012657806338a6e4cd1461014f578063642975ea1461016f5780636a20613714610182575b600080fd5b610139610134366004611d48565b6102bb565b60405161014691906122c4565b60405180910390f35b61016261015d366004611d71565b6103b5565b6040516101469190611f5b565b61016261017d366004611d48565b61068d565b610162610190366004611d48565b610852565b61019d610a28565b6040516101469190611e1a565b6101626101b8366004611cfc565b610a37565b6101626101cb366004611bb7565b610be9565b6101626101de366004611d48565b610d27565b61019d6101f1366004611d48565b610ebf565b610209610204366004611d48565b610ee7565b6040516101469190611f66565b61021e611054565b6040516101469190612363565b61021e61105a565b610246610241366004611c1d565b611060565b005b61021e610256366004611d48565b6111d2565b61019d6111fd565b610246610271366004611b85565b611221565b61019d611328565b61016261028c366004611c83565b611337565b6102a461029f366004611d48565b61154a565b6040516101469b9a99989796959493929190611eef565b6102c3611a7f565b6001600160a01b0380841660009081526005602090815260408083208684528252918290208251610160810184528154851681526001820154851692810192909252600281015490931691810191909152600382015460608201526004820154909190608083019060ff16600781111561034d57634e487b7160e01b600052602160045260246000fd5b600781111561036c57634e487b7160e01b600052602160045260246000fd5b81526020016005820154815260200160068201548152602001600782015481526020016008820154815260200160098201548152602001600a8201548152505090505b92915050565b6001600160a01b0380841660009081526005602090815260408083208684528252808320815161016081018352815486168152600182015486169381019390935260028101549094169082015260038301546060820152600483015491928392608083019060ff16600781111561043c57634e487b7160e01b600052602160045260246000fd5b600781111561045b57634e487b7160e01b600052602160045260246000fd5b81526020016005820154815260200160068201548152602001600782015481526020016008820154815260200160098201548152602001600a82015481525050905060006104aa8286866115bd565b9050806104d25760405162461bcd60e51b81526004016104c99061216e565b60405180910390fd5b6005600083602001516001600160a01b03166001600160a01b031681526020019081526020016000206000868152602001908152602001600020600080820160006101000a8154906001600160a01b0302191690556001820160006101000a8154906001600160a01b0302191690556002820160006101000a8154906001600160a01b03021916905560038201600090556004820160006101000a81549060ff021916905560058201600090556006820160009055600782016000905560088201600090556009820160009055600a82016000905550506005600083604001516001600160a01b03166001600160a01b031681526020019081526020016000206000868152602001908152602001600020600080820160006101000a8154906001600160a01b0302191690556001820160006101000a8154906001600160a01b0302191690556002820160006101000a8154906001600160a01b03021916905560038201600090556004820160006101000a81549060ff021916905560058201600090556006820160009055600782016000905560088201600090556009820160009055600a82016000905550506001925050509392505050565b600082826001806001600160a01b038416600090815260056020908152604080832086845290915290206004015460ff1660078111156106dd57634e487b7160e01b600052602160045260246000fd5b146106fa5760405162461bcd60e51b81526004016104c990612240565b6001600160a01b0380871660009081526005602090815260408083208984528252808320815161016081018352815486168152600182015486169381019390935260028101549094169082015260038301546060820152600483015491929091608083019060ff16600781111561078157634e487b7160e01b600052602160045260246000fd5b60078111156107a057634e487b7160e01b600052602160045260246000fd5b81526020016005820154815260200160068201548152602001600782015481526020016008820154815260200160098201548152602001600a820154815250509050866001600160a01b031681604001516001600160a01b0316146108175760405162461bcd60e51b81526004016104c9906120bc565b6000610825828860056115bd565b9050806108445760405162461bcd60e51b81526004016104c990612137565b506001979650505050505050565b6000828282806001600160a01b038416600090815260056020908152604080832086845290915290206004015460ff1660078111156108a157634e487b7160e01b600052602160045260246000fd5b146108be5760405162461bcd60e51b81526004016104c990612240565b6001600160a01b0380871660009081526005602090815260408083208984528252808320815161016081018352815486168152600182015486169381019390935260028101549094169082015260038301546060820152600483015491929091608083019060ff16600781111561094557634e487b7160e01b600052602160045260246000fd5b600781111561096457634e487b7160e01b600052602160045260246000fd5b81526020016005820154815260200160068201548152602001600782015481526020016008820154815260200160098201548152602001600a820154815250509050866001600160a01b031681602001516001600160a01b031614806109df5750866001600160a01b031681604001516001600160a01b0316145b6109fb5760405162461bcd60e51b81526004016104c990611fab565b6000610a09828860046115bd565b9050806108445760405162461bcd60e51b81526004016104c99061216e565b6001546001600160a01b031681565b60015460009085906001600160a01b03808316911614610a695760405162461bcd60e51b81526004016104c99061228d565b6001600160a01b0380861660009081526005602090815260408083208884528252808320815161016081018352815486168152600182015486169381019390935260028101549094169082015260038301546060820152600483015491929091608083019060ff166007811115610af057634e487b7160e01b600052602160045260246000fd5b6007811115610b0f57634e487b7160e01b600052602160045260246000fd5b81526020016005820154815260200160068201548152602001600782015481526020016008820154815260200160098201548152602001600a8201548152505090506000610b5e8287876115bd565b905080610b7d5760405162461bcd60e51b81526004016104c9906121dc565b6004856007811115610b9f57634e487b7160e01b600052602160045260246000fd5b1480610bca57506003856007811115610bc857634e487b7160e01b600052602160045260246000fd5b145b1561084457610bda8787876103b5565b50506001979650505050505050565b600080306001600160a01b031663b4ffafa76040518163ffffffff1660e01b815260040160206040518083038186803b158015610c2557600080fd5b505afa158015610c39573d6000803e3d6000fd5b505050506040513d601f19601f82011682018060405250810190610c5d9190611dd3565b9050610c7088888884898960008a611708565b915081610c8f5760405162461bcd60e51b81526004016104c990612085565b600160036000828254610ca2919061236c565b9091555060009050817f37c6225f4982e8c1352662a6dc83d76aaf4600bfe7b0de64c09a7a509d10d11c308a8a8d8b8b600060200201518c60016020020151426002548e610cf09190612384565b610cfa904261236c565b8e604051610d119a99989796959493929190611e2e565b60405180910390a3506001979650505050505050565b600082826001806001600160a01b038416600090815260056020908152604080832086845290915290206004015460ff166007811115610d7757634e487b7160e01b600052602160045260246000fd5b14610d945760405162461bcd60e51b81526004016104c990612240565b6001600160a01b0380871660009081526005602090815260408083208984528252808320815161016081018352815486168152600182015486169381019390935260028101549094169082015260038301546060820152600483015491929091608083019060ff166007811115610e1b57634e487b7160e01b600052602160045260246000fd5b6007811115610e3a57634e487b7160e01b600052602160045260246000fd5b81526020016005820154815260200160068201548152602001600782015481526020016008820154815260200160098201548152602001600a820154815250509050866001600160a01b031681604001516001600160a01b031614610eb15760405162461bcd60e51b81526004016104c990611fed565b6000610a09828860026115bd565b6001600160a01b03918216600090815260056020908152604080832093835292905220541690565b6001600160a01b0380831660009081526005602090815260408083208584528252808320815161016081018352815486168152600182015486169381019390935260028101549094169082015260038301546060820152600483015491928392608083019060ff166007811115610f6e57634e487b7160e01b600052602160045260246000fd5b6007811115610f8d57634e487b7160e01b600052602160045260246000fd5b81526020016005820154815260200160068201548152602001600782015481526020016008820154815260200160098201548152602001600a820154815250509050836001600160a01b031681602001516001600160a01b031614806110085750836001600160a01b031681604001516001600160a01b0316145b6110245760405162461bcd60e51b81526004016104c990611fab565b50506001600160a01b03919091166000908152600560209081526040808320938352929052206004015460ff1690565b60035481565b60035490565b600160036000828254611073919061236c565b90915550506001600160a01b0380861660009081526005602090815260408083208784528252808320815161016081018352815486168152600182015486169381019390935260028101549094169082015260038301546060820152600483015491929091608083019060ff1660078111156110ff57634e487b7160e01b600052602160045260246000fd5b600781111561111e57634e487b7160e01b600052602160045260246000fd5b815260058201546020820152600682015460408201526007820154606082015260088201546080820152600982015460a0820152600a9091015460c09091015290506003847f37c6225f4982e8c1352662a6dc83d76aaf4600bfe7b0de64c09a7a509d10d11c3089898c8989600060200201518a600160200201518a61010001518b61012001518c61014001516040516111c19a99989796959493929190611e2e565b60405180910390a350505050505050565b6001600160a01b03919091166000908152600560208181526040808420948452939052919020015490565b7f000000000000000000000000000000000000000000000000000000000000000081565b336001600160a01b037f000000000000000000000000000000000000000000000000000000000000000016146112695760405162461bcd60e51b81526004016104c990611f74565b6001600160a01b03821661128f5760405162461bcd60e51b81526004016104c9906120f3565b6001600160a01b0381166112b55760405162461bcd60e51b81526004016104c9906121a5565b600080546001600160a01b038085166001600160a01b03199283161792839055600180548583169316929092179182905560405130938216927ffaa26e48302948bffb5b7c83ab8db0b25572feabec87e37f1795c1eb7d16dbdc9261131c92911690611e1a565b60405180910390a35050565b6000546001600160a01b031681565b6001600160a01b0380871660009081526005602090815260408083208784528252808320815161016081018352815486168152600182015486169381019390935260028101549094169082015260038301546060820152600483015491928392608083019060ff1660078111156113be57634e487b7160e01b600052602160045260246000fd5b60078111156113dd57634e487b7160e01b600052602160045260246000fd5b81526020016005820154815260200160068201548152602001600782015481526020016008820154815260200160098201548152602001600a820154815250509050886001600160a01b031681600001516001600160a01b0316146114545760405162461bcd60e51b81526004016104c990612041565b61145e8886611a3e565b1561149a5760006114708287866115bd565b90508061148f5760405162461bcd60e51b81526004016104c99061220b565b60019250505061153f565b6040516385e1cd9960e01b815230906385e1cd99906114c8908c908c908c908c908b90600090600401611e87565b602060405180830381600087803b1580156114e257600080fd5b505af11580156114f6573d6000803e3d6000fd5b505050506040513d601f19601f8201168201806040525081019061151a9190611dac565b9150816115395760405162461bcd60e51b81526004016104c990612085565b60019150505b979650505050505050565b6005602081815260009384526040808520909152918352912080546001820154600283015460038401546004850154958501546006860154600787015460088801546009890154600a909901546001600160a01b039889169a978916999890961697949660ff169593949293919290918b565b6020808401516001600160a01b03166000908152600582526040808220858352909252908120600401805483919060ff1916600183600781111561161157634e487b7160e01b600052602160045260246000fd5b02179055506040808501516001600160a01b0316600090815260056020908152828220868352905220600401805483919060ff1916600183600781111561166857634e487b7160e01b600052602160045260246000fd5b021790555081600781111561168d57634e487b7160e01b600052602160045260246000fd5b837f8d6988262c489dfcdbbad6c4b99878b18aa3037a1efc6fe268c3c9e1cbca6665308760200151886040015189600001518a60a001518b60c001518c60e001518d61010001518e61012001518f61014001516040516116f69a99989796959493929190611e2e565b60405180910390a35060019392505050565b60006040518061016001604052808a6001600160a01b03168152602001896001600160a01b03168152602001886001600160a01b0316815260200187815260200184600781111561176957634e487b7160e01b600052602160045260246000fd5b81526020810187905285516040820152606001856001602002015181526020014281526020016002548461179d9190612384565b6117a7904261236c565b815260209081018490526001600160a01b03808b1660009081526005835260408082208b8352845290819020845181549084166001600160a01b031991821617825593850151600180830180549286169287169290921790915591850151600282018054919094169416939093179091556060830151600383015560808301516004830180549192909160ff19169083600781111561185657634e487b7160e01b600052602160045260246000fd5b021790555060a0820151816005015560c0820151816006015560e082015181600701556101008201518160080155610120820151816009015561014082015181600a01559050506040518061016001604052808a6001600160a01b03168152602001896001600160a01b03168152602001886001600160a01b031681526020018781526020018460078111156118fc57634e487b7160e01b600052602160045260246000fd5b8152602081018790528551604082015260600185600160200201518152602001428152602001600254846119309190612384565b61193a904261236c565b815260209081018490526001600160a01b03808a1660009081526005835260408082208b8352845290819020845181549084166001600160a01b031991821617825593850151600180830180549286169287169290921790915591850151600282018054919094169416939093179091556060830151600383015560808301516004830180549192909160ff1916908360078111156119e957634e487b7160e01b600052602160045260246000fd5b021790555060a0820151600582015560c0820151600682015560e082015160078201556101008201516008820155610120820151600982015561014090910151600a9091015550600198975050505050505050565b6001600160a01b03828116600090815260056020908152604080832085845290915281206002015490911615611a76575060016103af565b50600092915050565b604080516101608101825260008082526020820181905291810182905260608101829052906080820190815260006020820181905260408201819052606082018190526080820181905260a0820181905260c09091015290565b80356001600160a01b0381168114611af057600080fd5b919050565b600082601f830112611b05578081fd5b6040516040810181811067ffffffffffffffff82111715611b3457634e487b7160e01b83526041600452602483fd5b8060405250808385604086011115611b4a578384fd5b835b6002811015611b6b578135835260209283019290910190600101611b4c565b509195945050505050565b803560088110611af057600080fd5b60008060408385031215611b97578182fd5b611ba083611ad9565b9150611bae60208401611ad9565b90509250929050565b60008060008060008060e08789031215611bcf578182fd5b611bd887611ad9565b9550611be660208801611ad9565b9450611bf460408801611ad9565b935060608701359250611c0a8860808901611af5565b915060c087013590509295509295509295565b60008060008060008060e08789031215611c35578182fd5b611c3e87611ad9565b9550611c4c60208801611ad9565b9450611c5a60408801611ad9565b93506060870135925060808701359150611c778860a08901611af5565b90509295509295509295565b6000806000806000806000610100888a031215611c9e578081fd5b611ca788611ad9565b9650611cb560208901611ad9565b9550611cc360408901611ad9565b94506060880135935060808801359250611ce08960a08a01611af5565b9150611cee60e08901611b76565b905092959891949750929550565b60008060008060808587031215611d11578384fd5b611d1a85611ad9565b9350611d2860208601611ad9565b925060408501359150611d3d60608601611b76565b905092959194509250565b60008060408385031215611d5a578182fd5b611d6383611ad9565b946020939093013593505050565b600080600060608486031215611d85578283fd5b611d8e84611ad9565b925060208401359150611da360408501611b76565b90509250925092565b600060208284031215611dbd578081fd5b81518015158114611dcc578182fd5b9392505050565b600060208284031215611de4578081fd5b5051919050565b6001600160a01b03169052565b60088110611e1657634e487b7160e01b600052602160045260246000fd5b9052565b6001600160a01b0391909116815260200190565b6001600160a01b039a8b168152988a1660208a01529689166040890152949097166060870152608086019290925260a085015260c084015260e08301939093526101008201929092526101208101919091526101400190565b6001600160a01b03878116825286811660208084019190915290861660408301526060820185905260e082019060808301908560005b6002811015611eda57815184529282019290820190600101611ebd565b505050508260c0830152979650505050505050565b6001600160a01b038c811682528b811660208301528a166040820152606081018990526101608101611f24608083018a611df8565b8760a08301528660c08301528560e08301528461010083015283610120830152826101408301529c9b505050505050505050505050565b901515815260200190565b602081016103af8284611df8565b6020808252601a908201527f42504f423a3a696e697469616c697a6520464f5242494444454e000000000000604082015260600190565b60208082526022908201527f42504f423a3a4f6e6c792053656c6c65722f437573746f6d657220616c6c6f77604082015261195960f21b606082015260800190565b60208082526034908201527f42504f3a3a636f6e6669726d52656365697074546865437573746f6d6572206f6040820152731b9b1e4818dd5cdd1bdb595c88185b1b1bddd95960621b606082015260800190565b60208082526024908201527f42504f3a3a7570646174654f724372656174654f726465722077726f6e67207460408201526337b5b2b760e11b606082015260800190565b60208082526017908201527f42504f423a3a4f72646572206e6f742063726561746564000000000000000000604082015260600190565b6020808252601b908201527f42504f423a3a4f6e6c7920637573746f6d657220616c6c6f7765640000000000604082015260600190565b60208082526024908201527f42504f423a3a5f7061796d656e7453797374656d5549442061646472657373206040820152630697320360e41b606082015260800190565b60208082526018908201527f42504f423a3a6f70656e44697370757465206661696c65640000000000000000604082015260600190565b60208082526018908201527f42504f423a3a63616e63656c4f72646572206661696c65640000000000000000604082015260600190565b6020808252601c908201527f42504f423a3a5f6d65646961746f722061646472657373206973203000000000604082015260600190565b602080825260159082015274109413d08e8e9cd95d14dd185d194819985a5b1959605a1b604082015260600190565b6020808252818101527f42504f423a3a7570646174654f724372656174654f72646572206661696c6564604082015260600190565b6020808252602d908201527f42504f423a3a6f6e6c7945787065637465645374617465202d204e6f7420657860408201526c7065637465642073746174757360981b606082015260800190565b6020808252601b908201527f42504f423a3a4f6e6c79204d65646961746f7220616c6c6f7765640000000000604082015260600190565b6000610160820190506122d8828451611deb565b60208301516122ea6020840182611deb565b5060408301516122fd6040840182611deb565b5060608301516060830152608083015161231a6080840182611df8565b5060a083015160a083015260c083015160c083015260e083015160e083015261010080840151818401525061012080840151818401525061014080840151818401525092915050565b90815260200190565b6000821982111561237f5761237f6123a3565b500190565b600081600019048311821515161561239e5761239e6123a3565b500290565b634e487b7160e01b600052601160045260246000fdfea26469706673582212209677adc3cd5232984f64ab64cebd3caef5492996c7e57e2f0036d56c41faa37964736f6c63430008000033a26469706673582212207154937cf74250a9582a0db1ff9c67f4e002562fd032bfd4557abaebadcae78564736f6c63430008000033",
  "linkReferences": {},
  "deployedLinkReferences": {}
}